:1000000061C0000086C0000084C0000082C0000003
:1000100080C000007EC000007CC000007AC00000EC
:1000200078C0000076C0000074C0000072C00000FC
:1000300070C000000BC500006CC000006AC000006A
:10004000F1C7000066C000000C94F10A0C94230B69
:1000500060C000005EC000005CC000005AC000002C
:1000600058C0000056C00000000000080002010057
:100070000003040700000000000000000102040863
:100080001020408001020408102001020408102002
:10009000040404040404040402020202020203032E
:1000A00003030303000000002300260029000000D2
:1000B0000000250028002B0000000000240027007D
:1000C0002A00480B11241FBECFEFD8E0DEBFCDBF02
:1000D00011E0A0E0B1E0E6EBF7E102C005900D927F
:1000E000AC33B107D9F722E0ACE3B1E001C01D9217
:1000F000AC35B207E1F710E0C2E6D0E004C02197CA
:10010000FE010E94D30BC136D107C9F73BD50C9431
:10011000D90B76CFCF93DF93882349F0EB01815041
:100120000E94970899838883DF91CF910895FB01FE
:1001300011821082F9CF0F931F938B019C0183E0F2
:1001400036952795179507958A95D1F70B5B1E4F26
:10015000462F477021E030E0F90102C0EE0FFF1F8B
:100160004A95E2F7AF01F80120812423CB010196E3
:10017000211102C090E080E01F910F9108950F932C
:100180001F938B019C0183E0369527951795079562
:100190008A95D1F7677081E090E001C0880F6A9579
:1001A000EAF7F801EB5BFE4F2081452B31F4809597
:1001B000822380831F910F910895822BFACFCF92D3
:1001C000DF92EF92FF92CF93DF936B017C0160E0AF
:1001D0008EE0C816D104E104F10490F48EE08C0D99
:1001E0000E943609E6012196AE01C701B601C7DFBC
:1001F000CE01DF91CF91FF90EF90DF90CF900895E7
:100200008C2DEECF882341F08150682F70E090E074
:1002100080E050E040E0B3CF0895611102C00C943B
:1002200036096130E1F362E0FACF662319F061E04C
:100230000C94720960E0FCCF0E949F0921E00197B5
:1002400009F020E0822F0895CF92DF92EF92FF9283
:10025000CF93882331F16A017B01CFEFC80F20E0F3
:1002600030E0A901CB01B6013CD587FF10C0C70122
:10027000B60190583FD59B01AC016C2F70E090E027
:1002800080E0CF91FF90EF90DF90CF90ACC0C7019E
:10029000B6012BD58C2FCF91FF90EF90DF90CF90B0
:1002A00061C7CF91FF90EF90DF90CF9008950F93AB
:1002B0001F938B019C0183E0369527951795079531
:1002C0008A95D1F7045C1E4F462F477021E030E03D
:1002D000F90102C0EE0FFF1F4A95E2F7AF01F801E6
:1002E00020812423CB010196211102C090E080E0FF
:1002F0001F910F9108950F931F938B019C0183E031
:1003000036952795179507958A95D1F7677081E0FF
:1003100090E001C0880F6A95EAF7F801E45CFE4FAF
:100320002081452B31F48095822380831F910F918A
:100330000895822BFACF2F923F924F925F926F9245
:100340007F928F929F92AF92BF92CF92DF92EF9265
:10035000FF920F931F93CF93DF93D62EC72E782E45
:10036000692E49015A01280161E08D2D7FD7CD2DDD
:10037000DC2D8E010F5F1F4FA8016D2D7C2D872D69
:10038000962DB9DF20E030E0A901C201B701E3D525
:10039000181654F4C201B701ADD42B01C501B40144
:1003A000A9D4A201CE0122D0C801DF91CF911F9123
:1003B0000F91FF90EF90DF90CF90BF90AF909F9004
:1003C0008F907F906F905F904F903F902F90089507
:1003D000882341F08150682F70E090E080E050E089
:1003E00040E089CF0895862FB901BCC69C01FC016D
:1003F000E859FF4FE491E33059F138F4E13009F165
:10040000E23019F160E0822F6DC7E730C1F1E830CA
:1004100009F441C0E430B1F7809180008C7F8260A4
:100420008093800090918100907E9061692B609311
:100430008100509387004093860080918000806205
:100440001BC084B5806884BDDDCF84B58062FBCFDE
:10045000809180008C7F82608093800090918100E9
:10046000907E9061692B6093810050938700409348
:10047000860080918000806880938000C3CF809147
:10048000B00080688093B0008091B100887F682BB5
:100490006093B100B7CF8091B0008062F3CFFC01D0
:1004A00091E080915101811190E09183089588231A
:1004B000A1F0F90180819181A281B381FB01808348
:1004C0009183A283B383F90184819581A681B78149
:1004D000FA0180839183A283B3830895CF92DF9240
:1004E000EF92FF926B017C019F7720E030E040E8C3
:1004F00059E5F7D387FF26C020E030E040E05FE316
:10050000C701B60128D587FD0CC020E030E040E0EF
:100510005FE3C701B6016ED3FF90EF90DF90CF90FD
:1005200052C420E030E040E05FEBC701B60113D5D4
:1005300018167CF420E030E0A901C701B6010FD500
:100540006B017C01C701B601FF90EF90DF90CF9067
:10055000089520E030E040E05FE3C701B60149D3F1
:10056000FF90EF90DF90CF90A9C3809151018F5FF2
:10057000843618F480935101089510925101089522
:10058000CF92DF92EF92FF920F931F93CF93DF935F
:1005900000D0CDB7DEB7C0900001D0900101E0904F
:1005A0000201F0900301A70196016091060270918B
:1005B0000702809108029091090293D3882341F0A9
:1005C000C0920602D0920702E0920802F09209025D
:1005D00062E170E080E090E0AEDD909305028093F0
:1005E000040243E050E0BE016F5F7F4F93DD6BE09C
:1005F00070E080E090E05BDE8C01909339028093A4
:1006000038022091140130911501A981BA810E940C
:10061000C40B9CD320E030E040E856E3A0D46B014B
:100620007C0120E030E04FE753E45BD3181634F44C
:10063000C12CD12C8FE7E82E83E4F82EB701A60158
:10064000C80102DEC0900401D0900501E0900601CF
:10065000F0900701A701960160911E0270911F02A0
:1006600080912002909121023CD3882341F0C092D6
:100670001E02D0921F02E0922002F092210283E03B
:10068000DBDD2EE131E04EE352E06AE372E00FDFA2
:10069000C0900801D0900901E0900A01F0900B0190
:1006A000A7019601609112027091130280911402C9
:1006B0009091150216D3882341F0C0921202D09275
:1006C0001302E0921402F092150284E0B5DD26E1F7
:1006D00031E04AE352E06EE372E0E9DE60913A0213
:1006E00070913B0280913C0290913D02F7DE6B01DC
:1006F0007C0120E030E040E853E4F3D26FEF87FF65
:100700000CC020E030E0A901C701B60124D460E0AC
:1007100087FD03C0C701B601EDD289E086DD609197
:100720003E0270913F028091400290914102D6DEDC
:100730006B017C0120E030E040E853E4D2D26FEF5F
:1007400087FF0CC020E030E0A901C701B60103D447
:1007500060E087FD03C0C701B601CCD28AE065DD49
:100760000F900F90DF91CF911F910F91FF90EF901D
:10077000DF90CF9008954F925F926F927F92AF92E9
:10078000BF92DF92EF92FF920F931F93CF93DF936D
:1007900084E090E015D1EAE3F2E080E0A82E81E069
:1007A000B82EE5018C859D85AE85BF8580839183BC
:1007B000A283B38388899989AA89BB898483958315
:1007C000A683B783CEEFD1E01882F50180819181B5
:1007D000A281B38188879987AA87BB87412C512C36
:1007E0003201439449825A826B827C8262E170E0DA
:1007F00080E090E0E4DC9F838E83DD24D394DD826F
:100800001CAA4DAA5EAA6FAA78AEE12CF12C870132
:10081000A80197016BE070E080E090E08CDD9BAF79
:100820008AAFD9AE188EF50184819581A681B781F2
:1008300088A399A3AAA3BBA3498E5A8E6B8E7C8EE4
:1008400060E083E0EADCDD8E1C86F5018085918521
:10085000A285B3858C8B9D8BAE8BBF8B4D865E86C0
:100860006F86788A60E084E0D8DCD98A1CA64DA621
:100870005EA66FA678AA61E089E0CFDCD9AA1CA2A7
:100880004DA25EA26FA278A661E08AE0C6DCD9A67E
:10089000DF91CF911F910F91FF90EF90DF90BF906C
:1008A000AF907F906F905F904F9008958091FE0180
:1008B00081111DC081E08093FE018091FF01909124
:1008C0000002A0910102B09102020197A105B105B9
:1008D00071F480910302882351F062E170E080E0BE
:1008E00090E029DC90930502809304028BDC8091D8
:1008F000320281112AC081E080933202809133025A
:1009000090913402A0913502B09136020197A10571
:10091000B105D9F4809137028823B9F06BE070E01B
:1009200080E090E0C4DC909339028093380240E08C
:1009300050E0BA0189DC6BE070E080E090E0B7DC69
:10094000909339028093380243DD80911602811121
:1009500003C081E08093160280910A02811103C0D6
:1009600081E080930A0280912A02811103C081E014
:1009700080932A0280912202811103C081E080933A
:100980002202089560E070E080E89FE7089560E04B
:1009900070E080E89FE7089560E070E080E89FEFF6
:1009A000089560E070E080E89FEF089560E070E0F7
:1009B00080EC9FEF089560E070E080EC9FEF089579
:1009C000F5DF60934E0270934F0280935002909334
:1009D0005102F1DF6093420270934302809344021C
:1009E00090934502CFDF60934A0270934B0280934D
:1009F0004C0290934D02CBDF609346027093470206
:100A00008093480290934902C7DF6093520270932B
:100A100053028093540290935502C3DF60935602B1
:100A2000709357028093580290935902089526E0DC
:100A300030E040E855E260E070E090E080E000C027
:100A4000892B19F481E691E06CC508951F920F92ED
:100A50000FB60F9211242F933F934F935F936F9391
:100A60007F938F939F93AF93BF93EF93FF9386E012
:100A70009FEF909385008093840032D0FF91EF9197
:100A8000BF91AF919F918F917F916F915F914F91A6
:100A90003F912F910F900FBE0F901F90189586E0F9
:100AA0009FEF9093850080938400AFE6B0E08C9137
:100AB0008E7F8C93E0E8F0E080818C7F8083E1E89A
:100AC000F0E08081877E8083808183608083808165
:100AD0008B7F80838C9181608C93089581E0089551
:100AE000CF93DF9300D0CDB7DEB78091540191E072
:100AF000980F90935401882369F021E030E03093FF
:100B0000570120935601809354010F900F90DF916D
:100B1000CF910895CE010196C2DC789426DDF89439
:100B2000809154018150809354018A81882389F0F7
:100B30008091530191E0980F90935301882349F0DD
:100B400021E030E030935701209356018093530108
:100B5000DCCF809153018823C1F28091550181112E
:100B6000D4CF81E08093550178940ADDF894809188
:100B7000530181508093530180915501815080939E
:100B80005501C3CFCF93DF9310925B0210925A02AC
:100B900093D24DDFC0912701D0912801198218828C
:100BA000EADDF8947CDF2881398181E0232B09F08C
:100BB00080E080935A027894789480915A0281114F
:100BC00007C074DEF89490E080E0DF91CF91089543
:100BD0002881398181E0232B09F480E080935B0236
:100BE00090915B0281E0911180E080935A0276DF60
:100BF000E4CF5058BB27AA270ED05CC14DD130F0AE
:100C000052D120F031F49F3F11F41EF442C10EF492
:100C1000E095E7FB0FC1E92F5ED180F3BA176207B9
:100C200073078407950718F071F49EF58DC10EF4D3
:100C3000E0950B2EBA2FA02D0B01B90190010C01EC
:100C4000CA01A0011124FF27591B99F0593F50F404
:100C5000503E68F11A16F040A22F232F342F44275C
:100C6000585FF3CF469537952795A795F040539554
:100C7000C9F77EF41F16BA0B620B730B840BBAF024
:100C80009150A1F0FF0FBB1F661F771F881FC2F78F
:100C90000EC0BA0F621F731F841F48F487957795A3
:100CA0006795B795F7959E3F08F0B3CF9395880F5A
:100CB00008F09927EE0F9795879508952ED180F02B
:100CC0009F3740F491110EF440C160E070E080E87D
:100CD0009FE3089526F01B16611D711D811DB0C094
:100CE000CAC084D008F481E0089504D06894B1119A
:100CF0002CC10895F8D088F09F5790F0B92F99270C
:100D0000B751A0F0D1F0660F771F881F991F1AF016
:100D1000BA95C9F712C0B13081F016D1B1E008958B
:100D200013C1672F782F8827B85F39F0B93FCCF30C
:100D3000869577956795B395D9F73EF4909580950C
:100D4000709561957F4F8F4F9F4F0895E89409C02C
:100D500097FB3EF490958095709561957F4F8F4FEE
:100D60009F4F9923A9F0F92F96E9BB279395F69504
:100D7000879577956795B795F111F8CFFAF4BB0F82
:100D800011F460FF1BC06F5F7F4F8F4F9F4F16C0E6
:100D9000882311F096E911C0772321F09EE8872F70
:100DA000762F05C0662371F096E8862F70E060E02C
:100DB0002AF09A95660F771F881FDAF7880F9695A5
:100DC000879597F90895A9D080F09F3740F4911145
:100DD0000EF0BBC060E070E080E89FEB089526F461
:100DE0001B16611D711D811D2BC045C0990F000888
:100DF000550FAA0BE0E8FEEF16161706E807F907ED
:100E0000C0F012161306E407F50798F0621B730B87
:100E1000840B950B39F40A2661F0232B242B252B08
:100E200021F408950A2609F4A140A6958FEF811DAB
:100E3000811D089597F99F6780E870E060E008954C
:100E4000882371F4772321F09850872B762F07C0E1
:100E5000662311F499270DC09051862B70E060E055
:100E60002AF09A95660F771F881FDAF7880F9695F4
:100E7000879597F908959F3F31F0915020F4879519
:100E800077956795B795880F911D9695879597F9F2
:100E900008959FEF80EC089500240A941616170613
:100EA00018060906089500240A941216130614065B
:100EB00005060895092E0394000C11F4882352F0BE
:100EC000BB0F40F4BF2B11F460FF04C06F5F7F4F76
:100ED0008F4F9F4F089557FD9058440F551F59F05D
:100EE0005F3F71F04795880F97FB991F61F09F3F17
:100EF00079F087950895121613061406551FF2CF40
:100F00004695F1DF08C0161617061806991FF1CF8F
:100F100086957105610508940895E5DFA0F0BEE7A8
:100F2000B91788F4BB279F3860F41616B11D672FD8
:100F3000782F8827985FF7CF869577956795B11DAD
:100F400093959639C8F30895E894BB2766277727C9
:100F5000CB0197F908954ADF08F48FEF08950BD07D
:100F6000A9CF9ADF28F09FDF18F0952309F062CF10
:100F700090CF1124EACFAFDFA0F3959FD1F3950F67
:100F800050E0551F629FF001729FBB27F00DB11D0D
:100F9000639FAA27F00DB11DAA1F649F6627B00D9D
:100FA000A11D661F829F2227B00DA11D621F739F86
:100FB000B00DA11D621F839FA00D611D221F749F94
:100FC0003327A00D611D231F849F600D211D822FDB
:100FD000762F6A2F11249F5750408AF0E1F0882322
:100FE0004AF0EE0FFF1FBB1F661F771F881F91502F
:100FF0005040A9F79E3F510570F01CCFA6CF5F3F30
:10100000ECF3983EDCF3869577956795B795F79561
:10101000E7959F5FC1F7FE2B880F911D96958795E9
:1010200097F908951F920F920FB60F9211242F93E4
:101030003F938F939F93AF93BF938091590190916A
:101040005A01A0915B01B0915C013091580123E0FD
:10105000230F2D3758F50196A11DB11D209358017E
:101060008093590190935A01A0935B01B0935C0166
:1010700080915D0190915E01A0915F01B09160014E
:101080000196A11DB11D80935D0190935E01A09317
:101090005F01B0936001BF91AF919F918F913F919C
:1010A0002F910F900FBE0F901F90189526E8230FD9
:1010B0000296A11DB11DD2CF789484B5826084BD03
:1010C00084B5816084BD85B5826085BD85B581604C
:1010D00085BDEEE6F0E0808181608083E1E8F0E0AC
:1010E0001082808182608083808181608083E0E8DB
:1010F000F0E0808181608083E1EBF0E080818460BA
:101100008083E0EBF0E0808181608083EAE7F0E0BB
:10111000808184608083808182608083808181601F
:1011200080838081806880831092C10008958E3012
:1011300008F08E502091260190E4299F90011124FF
:101140008770822B80937C0080917A0080648093EA
:101150007A0080917A0086FDFCCF80917800909192
:10116000790008951F93CF93DF93182FEB0161E06F
:101170007DD0209731F460E0812FDF91CF911F91D6
:10118000B1C0CF3FD10511F461E0F6CFE12FF0E01F
:10119000E859FF4FE491E33031F140F4E130B1F030
:1011A000E230E1F0C038D1057CF7E5CFE73029F136
:1011B000E83059F1E430B1F780918000806280938B
:1011C0008000D0938B00C0938A0004C084B58068EF
:1011D00084BDC7BDDF91CF911F91089584B5806212
:1011E00084BDC8BDF7CF8091800080688093800067
:1011F000D0938900C0938800EDCF8091B0008068C3
:101200008093B000C093B300E5CF8091B0008062BE
:101210008093B000C093B400DDCF833081F028F418
:10122000813099F08230A9F008958730A9F0883094
:10123000C9F08430B1F4809180008F7D03C080912B
:1012400080008F7780938000089584B58F7784BD68
:10125000089584B58F7DFBCF8091B0008F77809308
:10126000B00008958091B0008F7DF9CFCF93DF93C8
:1012700090E0FC01E458FF4F249180579F4FFC0100
:1012800084918823C9F090E0880F991FFC01E854ED
:10129000FF4FA591B491FC01E255FF4FC591D49148
:1012A00061110DC09FB7F8948C91209582238C9387
:1012B0008881282328839FBFDF91CF9108956230D2
:1012C00051F49FB7F8943C91822F809583238C939F
:1012D000E8812E2BEFCF8FB7F894EC912E2B2C9327
:1012E0008FBFEACF1F93CF93DF93282F30E0F90110
:1012F000E859FF4F8491F901E458FF4FD491F90167
:10130000E057FF4FC491CC23A1F0162F811185DF48
:10131000EC2FF0E0EE0FFF1FE255FF4FA591B491C7
:101320008FB7F894EC91111108C0D095DE23DC93AF
:101330008FBFDF91CF911F910895DE2BF8CFCF9310
:10134000DF93282F30E0F901E859FF4F8491F9012C
:10135000E458FF4FD491F901E057FF4FC491CC23DB
:1013600099F081115ADFEC2FF0E0EE0FFF1FEC55E2
:10137000FF4FA591B491EC91ED2381E090E009F449
:1013800080E0DF91CF91089580E090E0FACFFC01FA
:10139000918D228D892F90E0805C9F4F821B910957
:1013A0008F7399270895FC01918D828D981731F0E4
:1013B000828DE80FF11D858D90E008958FEF9FEFEE
:1013C0000895FC01918D828D981761F0A28DAE0F6A
:1013D000BF2FB11D5D968C91928D9F5F9F73928FF1
:1013E00090E008958FEF9FEF0895FC01538D448D99
:1013F000252F30E0842F90E0821B930B541710F0C0
:10140000CF96089501970895FC01A48DA80FB92FD8
:10141000B11DA35ABF4F2C91848D90E001968F731C
:101420009927848FA689B7892C93A089B1898C913B
:10143000837080648C93938D848D981306C002888A
:10144000F389E02D80818F7D80830895CF93DF9392
:10145000EC01888D8823B1F0AA89BB89E889F989D4
:101460008C9185FD03C0808186FD0CC00FB607FC02
:10147000F7CF8C9185FFF2CF808185FFEDCFCE0134
:10148000C3DFEACFDF91CF910895EF92FF920F93E0
:101490001F93CF93DF93EC0181E0888F9B8D8C8D20
:1014A00098131AC0E889F989808185FF15C09FB714
:1014B000F894EE89FF896083E889F98980818370D7
:1014C000806480839FBF81E090E0DF91CF911F9186
:1014D0000F91FF90EF900895F62E0B8D10E00F5FA7
:1014E0001F4F0F731127E02E8C8D8E110BC00FB67E
:1014F00007FCFACFE889F989808185FFF5CFCE0115
:1015000083DFF2CFEB8DEC0FFD2FF11DE35AFF4F80
:10151000F0829FB7F8940B8FEA89FB898081806203
:10152000D0CFCF92DF92EF92FF921F93CF93DF93B2
:10153000EC016A017B01122FE889F98982E080833E
:10154000C11481EED806E104F10499F060E079E07D
:101550008DE390E0A7019601F5D0215031094109B2
:1015600051095695479537952795211580E13807FC
:1015700090F0E889F989108260E874E88EE190E0E3
:10158000A7019601DFD02150310941095109569533
:10159000479537952795EC85FD853083EE85FF854A
:1015A0002083188EEC89FD891083EA89FB8980816C
:1015B00080618083EA89FB89808188608083EA89F1
:1015C000FB89808180688083EA89FB8980818F7DA7
:1015D0008083DF91CF911F91FF90EF90DF90CF90AC
:1015E00008951F920F920FB60F9211242F938F938D
:1015F0009F93EF93FF93E0917101F09172018081CD
:10160000E0917701F091780182FD1BC0908180917B
:101610007A018F5F8F7320917B01821741F0E091F7
:101620007A01F0E0EF59FE4F958F80937A01FF9198
:10163000EF919F918F912F910F900FBE0F901F9060
:1016400018958081F4CF1F920F920FB60F9211243C
:101650002F933F934F935F936F937F938F939F93BA
:10166000AF93BF93EF93FF9381E691E0CDDEFF91BF
:10167000EF91BF91AF919F918F917F916F915F910A
:101680004F913F912F910F900FBE0F901F90189583
:10169000E1E6F1E01382128288EE93E0A0E0B0E090
:1016A00084839583A683B7838DE291E091838083C1
:1016B00085EC90E09587848784EC90E09787868717
:1016C00080EC90E0918B808B81EC90E0938B828B0F
:1016D00082EC90E0958B848B86EC90E0978B868BE8
:1016E000118E128E138E148E0895AF92BF92CF92E8
:1016F000DF92EF92FF920F931F93CF93DF936C01D2
:101700007B018B01040F151FEB015E01AE18BF08B2
:10171000C017D10759F06991D601ED91FC91019064
:10172000F081E02DC6010995892B79F7C501DF917C
:10173000CF911F910F91FF90EF90DF90CF90BF90CE
:10174000AF900895A1E21A2EAA1BBB1BFD010DC08C
:10175000AA1FBB1FEE1FFF1FA217B307E407F50761
:1017600020F0A21BB30BE40BF50B661F771F881F3D
:10177000991F1A9469F760957095809590959B01D3
:10178000AC01BD01CF010895A29FB001B39FC0017C
:10179000A39F700D811D1124911DB29F700D811D9D
:1017A0001124911D0895EE0FFF1F0590F491E02D77
:0617B0000994F894FFCF3C
:1017B600000080BFCDCCCC3DCDCCCC3D00000000A0
:1017C6000000000002FE0000803F00000000000054
:1017D600803F00000000014E0100000000450A7530
:0C17E6000BF509260AC709E109D3090028
:00000001FF
