:100000005CC000007FC000007DC000007BC000001D
:1000100079C0000077C0000075C0000073C0000008
:1000200071C000006FC000006DC000006BC0000018
:1000300069C00000ABC0000065C0000063C00000E4
:100040003EC100005FC000007BC30000ABC30000E6
:1000500059C0000057C0000055C0000053C0000048
:1000600051C000004FC00000000000080002010065
:100070000003040700000000000000000102040863
:100080001020408001020408102001020408102002
:10009000040404040404040402020202020203032E
:1000A0000303030300000000250028002B000000CC
:1000B0000000240027002A00F70311241FBECFEF01
:1000C000D8E0DEBFCDBF11E0A0E0B1E0E6EFF8E0A0
:1000D00002C005900D92A831B107D9F721E0A8E13F
:1000E000B1E001C01D92AD3CB207E1F710E0CDE5F3
:1000F000D0E003C02197FE01F6D3CC35D107D1F76C
:10010000A7D0F7C37DCF611101C087C16130E9F38A
:1001100062E0FBCF662311F061E0BBC160E0FDCF80
:100120008091020160910001813011F06091010124
:1001300089E0F0CFCF93DF93C3ECD1E0188281E068
:1001400090E0A0E0B0E089839A83AB83BC8361E058
:1001500089E0D9DF81E08D83DF91CF91089580918F
:10016000C301811103C081E08093C301089526E09B
:1001700030E040E855E260E070E090E080E000C0F0
:10018000892B19F486E291E07BC208951F920F92A9
:100190000FB60F9211242F933F934F935F936F935A
:1001A0007F938F939F93AF93BF93EF93FF9386E0DB
:1001B0009FEF909385008093840032D0FF91EF9160
:1001C000BF91AF919F918F917F916F915F914F916F
:1001D0003F912F910F900FBE0F901F90189586E0C2
:1001E0009FEF9093850080938400AFE6B0E08C9100
:1001F0008E7F8C93E0E8F0E080818C7F8083E1E863
:10020000F0E08081877E808380818360808380812D
:100210008B7F80838C9181608C93089581E0089519
:1002200080911A0191E0980F90931A01882349F068
:1002300021E030E030931C0120931B0180931A01D0
:10024000089578946DDFF89480911A018150F6CF6B
:10025000CF93DF931092CC011092CB017AD087DF3D
:10026000C0910301D09104011982188263DFF894D0
:10027000B6DF2881398181E0232B09F080E080936B
:10028000CB01789478948091CB01811107C067DF0E
:10029000F89490E080E0DF91CF9108952881398132
:1002A00081E0232B09F480E08093CC019091CC0174
:1002B00081E0911180E08093CB01B0DFE4CF1F9209
:1002C0000F920FB60F9211242F933F938F939F930A
:1002D000AF93BF9380911E0190911F01A0912001C7
:1002E000B091210130911D0123E0230F2D3758F5E6
:1002F0000196A11DB11D20931D0180931E019093B5
:100300001F01A0932001B0932101809122019091BF
:100310002301A0912401B09125010196A11DB11DD9
:100320008093220190932301A0932401B09325018F
:10033000BF91AF919F918F913F912F910F900FBEE1
:100340000F901F90189526E8230F0296A11DB11D4E
:10035000D2CF789484B5826084BD84B5816084BD39
:1003600085B5826085BD85B5816085BDEEE6F0E02E
:10037000808181608083E1E8F0E01082808182608A
:100380008083808181608083E0E8F0E0808181600B
:100390008083E1EBF0E0808184608083E0EBF0E03B
:1003A000808181608083EAE7F0E0808184608083DF
:1003B0008081826080838081816080838081806889
:1003C00080831092C1000895833081F028F4813039
:1003D00099F08230A9F008958730A9F08830C9F0EB
:1003E0008430B1F4809180008F7D03C080918000C3
:1003F0008F7780938000089584B58F7784BD0895AA
:1004000084B58F7DFBCF8091B0008F778093B00053
:1004100008958091B0008F7DF9CFCF93DF9390E066
:10042000FC01E458FF4F249180579F4FFC018491B9
:100430008823C9F090E0880F991FFC01E255FF4F17
:10044000A591B491FC01EC55FF4FC591D491611178
:100450000DC09FB7F8948C91209582238C9388814E
:10046000282328839FBFDF91CF910895623051F4F4
:100470009FB7F8943C91822F809583238C93E881D9
:100480002E2BEFCF8FB7F894EC912E2B2C938FBFA0
:10049000EACF1F93CF93DF93282F30E0F901E8597B
:1004A000FF4F8491F901E458FF4FD491F901E057CF
:1004B000FF4FC491CC23A1F0162F811185DFEC2FC3
:1004C000F0E0EE0FFF1FEC55FF4FA591B4918FB7F1
:1004D000F894EC91111108C0D095DE23DC938FBF06
:1004E000DF91CF911F910895DE2BF8CFFC01918D04
:1004F000228D892F90E0805C9F4F821B91098F7322
:1005000099270895FC01918D828D981731F0828D85
:10051000E80FF11D858D90E008958FEF9FEF08950E
:10052000FC01918D828D981761F0A28DAE0FBF2FC7
:10053000B11D5D968C91928D9F5F9F73928F90E01D
:1005400008958FEF9FEF0895FC01538D448D252F63
:1005500030E0842F90E0821B930B541710F0CF965D
:10056000089501970895FC01A48DA80FB92FB11D1E
:10057000A35ABF4F2C91848D90E001968F739927D9
:10058000848FA689B7892C93A089B1898C918370B7
:1005900080648C93938D848D981306C00288F389B0
:1005A000E02D80818F7D80830895CF93DF93EC01D0
:1005B000888D8823B1F0AA89BB89E889F9898C9153
:1005C00085FD03C0808186FD0CC00FB607FCF7CF08
:1005D0008C9185FFF2CF808185FFEDCFCE01C3DF07
:1005E000EACFDF91CF910895EF92FF920F931F937F
:1005F000CF93DF93EC0181E0888F9B8D8C8D9813D6
:100600001AC0E889F989808185FF15C09FB7F894E1
:10061000EE89FF896083E889F9898081837080642D
:1006200080839FBF81E090E0DF91CF911F910F9178
:10063000FF90EF900895F62E0B8D10E00F5F1F4F87
:100640000F731127E02E8C8D8E110BC00FB607FC97
:10065000FACFE889F989808185FFF5CFCE0183DF64
:10066000F2CFEB8DEC0FFD2FF11DE35AFF4FF0821F
:100670009FB7F8940B8FEA89FB8980818062D0CF85
:10068000CF92DF92EF92FF921F93CF93DF93EC0113
:100690006A017B01122FE889F98982E08083C11405
:1006A00081EED806E104F10499F060E079E08DE391
:1006B00090E0A7019601F5D0215031094109510977
:1006C0005695479537952795211580E1380790F085
:1006D000E889F989108260E874E88EE190E0A7016A
:1006E0009601DFD0215031094109510956954795AE
:1006F00037952795EC85FD853083EE85FF85208332
:10070000188EEC89FD891083EA89FB8980818061DC
:100710008083EA89FB89808188608083EA89FB89FC
:10072000808180688083EA89FB8980818F7D8083D6
:10073000DF91CF911F91FF90EF90DF90CF900895C0
:100740001F920F920FB60F9211242F938F939F93A6
:10075000EF93FF93E0913601F09137018081E091B2
:100760003C01F0913D0182FD1BC0908180913F01D1
:100770008F5F8F7320914001821741F0E0913F011C
:10078000F0E0EA5DFE4F958F80933F01FF91EF917E
:100790009F918F912F910F900FBE0F901F901895E2
:1007A0008081F4CF1F920F920FB60F9211242F93D6
:1007B0003F934F935F936F937F938F939F93AF93E9
:1007C000BF93EF93FF9386E291E0CDDEFF91EF912F
:1007D000BF91AF919F918F917F916F915F914F9159
:1007E0003F912F910F900FBE0F901F901895E6E24A
:1007F000F1E01382128288EE93E0A0E0B0E08483FF
:100800009583A683B78389E091E09183808385EC0B
:1008100090E09587848784EC90E09787868780ECCA
:1008200090E0918B808B81EC90E0938B828B82ECBB
:1008300090E0958B848B86EC90E0978B868B118E65
:10084000128E138E148E0895AF92BF92CF92DF92C4
:10085000EF92FF920F931F93CF93DF936C017B0175
:100860008B01040F151FEB015E01AE18BF08C01706
:10087000D10759F06991D601ED91FC910190F08179
:10088000E02DC6010995892B79F7C501DF91CF913C
:100890001F910F91FF90EF90DF90CF90BF90AF909E
:1008A0000895A1E21A2EAA1BBB1BFD010DC0AA1FB1
:1008B000BB1FEE1FFF1FA217B307E407F50720F0C9
:1008C000A21BB30BE40BF50B661F771F881F991F44
:1008D0001A9469F760957095809590959B01AC018D
:1008E000BD01CF010895EE0FFF1F0590F491E02D9B
:0608F0000994F894FFCF0B
:1008F600010001180100000000F4022404A402D53E
:08090600027602900282020059
:00000001FF
