:1000000061C0000084C0000082C0000080C0000009
:100010007EC000007CC000007AC0000078C00000F4
:1000200076C0000074C0000072C0000070C0000004
:100030006EC0000052C100006AC0000068C000002D
:10004000C3C2000064C0000028C5000058C50000FD
:100050005EC000005CC000005AC0000058C0000034
:1000600056C0000054C0000000000008000201005B
:100070000003040700000000000000000102040863
:100080001020408001020408102001020408102002
:10009000040404040404040402020202020203032E
:1000A00003030303000000002300260029000000D2
:1000B0000000250028002B0000000000240027007D
:1000C0002A00A40511241FBECFEFD8E0DEBFCDBFAC
:1000D00011E0A0E0B1E0E0E5FCE002C005900D9287
:1000E000A632B107D9F721E0A6E2B1E001C01D9226
:1000F000AD3EB207E1F710E0C2E6D0E003C02197C1
:10010000FE019ED5C136D107D1F749D19FC578CF21
:10011000611101C007C36130E9F362E0FBCF6623E0
:1001200011F061E03BC360E0FDCF65D321E00197B2
:1001300009F020E0822F0895CF92DF92EF92FF9294
:10014000C0900001D0900101E0900201F090030105
:10015000A70196016091D9017091DA018091DB01CC
:100160009091DC01B8D1882341F0C092D901D0929E
:10017000DA01E092DB01F092DC0182E0D6DF882335
:1001800009F44EC08091EA01811113C080910C01E5
:1001900090910D01A0910E01B0910F018093E501A6
:1001A0009093E601A093E701B093E80181E080938A
:1001B000EA01209108013091090140910A01509112
:1001C0000B016091E5017091E6018091E70190914A
:1001D000E8011DD16093E5017093E6018093E7018A
:1001E0009093E80120E030E040E251E46091E501C5
:1001F0007091E6018091E7019091E8016CD1811145
:1002000007C081E09091E901911180E08093E901BC
:100210006091E90185E0FF90EF90DF90CF907FCF74
:100220001092EA01DFCFCF92DF92EF92FF921F93FD
:10023000CF93DF93C1EDD1E0E0E0F1E084819581DF
:10024000A681B7818C8B9D8BAE8BBF8B8089888F6D
:10025000188280819181A281B38188879987AA873A
:10026000BB87C12CD12C7601C394C982DA82EB8280
:10027000FC8260E082E04CDF11E01D831C86CD86AD
:10028000DE86EF86F88A61E085E042DF198BDF9138
:10029000CF911F91FF90EF90DF90CF9008958091C4
:1002A000D101811103C081E08093D1018091DD01F2
:1002B000811103C081E08093DD01089526E030E0E4
:1002C00040E855E260E070E090E080E000C0892BFB
:1002D00019F484E391E081C308951F920F920FB641
:1002E0000F9211242F933F934F935F936F937F93BC
:1002F0008F939F93AF93BF93EF93FF9386E997EE0E
:10030000909385008093840032D0FF91EF91BF914C
:10031000AF919F918F917F916F915F914F913F919D
:100320002F910F900FBE0F901F90189586E997EEB2
:100330009093850080938400AFE6B0E08C918E7F2F
:100340008C93E0E8F0E080818C7F8083E1E8F0E04E
:100350008081877E808380818460808380818C7FA0
:1003600080838C9181608C93089581E008958091C1
:10037000280191E0980F90932801882349F021E00B
:1003800030E030932A0120932901809328010895B9
:100390007894D2DEF894809128018150F6CFCF93E3
:1003A000DF931092EC011092EB0158D187DFC091DE
:1003B0001201D09113011982188235DFF894B6DF4B
:1003C0002881398181E0232B09F080E08093EB01C3
:1003D000789478948091EB01811107C060DFF894E4
:1003E00090E080E0DF91CF9108952881398181E00C
:1003F000232B09F480E08093EC019091EC0181E0E3
:10040000911180E08093EB01B0DFE4CF5058BB271F
:10041000AA270ED09FC090D030F095D020F031F4B4
:100420009F3F11F41EF485C00EF4E095E7FB7BC0FE
:10043000E92FA1D080F3BA176207730784079507E5
:1004400018F071F49EF5B9C00EF4E0950B2EBA2F9A
:10045000A02D0B01B90190010C01CA01A0011124CA
:10046000FF27591B99F0593F50F4503E68F11A1676
:10047000F040A22F232F342F4427585FF3CF469507
:1004800037952795A795F0405395C9F77EF41F1629
:10049000BA0B620B730B840BBAF09150A1F0FF0FF3
:1004A000BB1F661F771F881FC2F70EC0BA0F621FDF
:1004B000731F841F48F4879577956795B795F795CF
:1004C0009E3F08F0B3CF9395880F08F09927EE0F61
:1004D00097958795089503D008F481E00895990FC2
:1004E0000008550FAA0BE0E8FEEF16161706E807FE
:1004F000F907C0F012161306E407F50798F0621B1F
:10050000730B840B950B39F40A2661F0232B242BF3
:10051000252B21F408950A2609F4A140A6958FEF12
:10052000811D811D089597F99F6780E870E060E064
:1005300008959FEF80EC089500240A94161617067C
:1005400018060906089500240A94121613061406C4
:1005500005060895092E0394000C11F4882352F027
:10056000BB0F40F4BF2B11F460FF04C06F5F7F4FDF
:100570008F4F9F4F089557FD9058440F551F59F0C6
:100580005F3F71F04795880F97FB991F61F09F3F80
:1005900079F087950895121613061406551FF2CFA9
:1005A0004695F1DF08C0161617061806991FF1CFF9
:1005B00086957105610508940895E894BB27662720
:1005C0007727CB0197F908951F920F920FB60F92DC
:1005D00011242F933F938F939F93AF93BF93809159
:1005E0002C0190912D01A0912E01B0912F013091FD
:1005F0002B0123E0230F2D3758F50196A11DB11DC6
:1006000020932B0180932C0190932D01A0932E0118
:10061000B0932F018091300190913101A09132016E
:10062000B09133010196A11DB11D809330019093CB
:100630003101A0933201B0933301BF91AF919F91EB
:100640008F913F912F910F900FBE0F901F90189593
:1006500026E8230F0296A11DB11DD2CF789484B550
:10066000826084BD84B5816084BD85B5826085BDAE
:1006700085B5816085BDEEE6F0E080818160808394
:10068000E1E8F0E010828081826080838081816077
:100690008083E0E8F0E0808181608083E1EBF0E03E
:1006A000808184608083E0EBF0E0808181608083E2
:1006B000EAE7F0E0808184608083808182608083CB
:1006C0008081816080838081806880831092C100F6
:1006D0000895833081F028F4813099F08230A9F0B8
:1006E00008958730A9F08830C9F08430B1F4809142
:1006F00080008F7D03C0809180008F778093800081
:10070000089584B58F7784BD089584B58F7DFBCF20
:100710008091B0008F778093B00008958091B000F1
:100720008F7DF9CFCF93DF9390E0FC01E458FF4F2A
:10073000249180579F4FFC0184918823C9F090E059
:10074000880F991FFC01E854FF4FA591B491FC015B
:10075000E255FF4FC591D49161110DC09FB7F89438
:100760008C91209582238C938881282328839FBF96
:10077000DF91CF910895623051F49FB7F8943C9186
:10078000822F809583238C93E8812E2BEFCF8FB718
:10079000F894EC912E2B2C938FBFEACF1F93CF931D
:1007A000DF93282F30E0F901E859FF4F8491F901D8
:1007B000E458FF4FD491F901E057FF4FC491CC2387
:1007C000A1F0162F811185DFEC2FF0E0EE0FFF1F57
:1007D000E255FF4FA591B4918FB7F894EC911111A8
:1007E00008C0D095DE23DC938FBFDF91CF911F919E
:1007F0000895DE2BF8CFCF93DF93282F30E0F90157
:10080000E859FF4F8491F901E458FF4FD491F90161
:10081000E057FF4FC491CC2399F081115ADFEC2FA0
:10082000F0E0EE0FFF1FEC55FF4FA591B491EC9156
:10083000ED2381E090E009F480E0DF91CF9108950D
:1008400080E090E0FACFFC01918D228D892F90E01D
:10085000805C9F4F821B91098F7399270895FC013B
:10086000918D828D981731F0828DE80FF11D858D65
:1008700090E008958FEF9FEF0895FC01918D828D98
:10088000981761F0A28DAE0FBF2FB11D5D968C91B0
:10089000928D9F5F9F73928F90E008958FEF9FEFEF
:1008A0000895FC01538D448D252F30E0842F90E076
:1008B000821B930B541710F0CF960895019708955B
:1008C000FC01A48DA80FB92FB11DA35ABF4F2C91C5
:1008D000848D90E001968F739927848FA689B789BC
:1008E0002C93A089B1898C91837080648C93938DB3
:1008F000848D981306C00288F389E02D80818F7D56
:1009000080830895CF93DF93EC01888D8823B1F025
:10091000AA89BB89E889F9898C9185FD03C080810A
:1009200086FD0CC00FB607FCF7CF8C9185FFF2CF88
:10093000808185FFEDCFCE01C3DFEACFDF91CF917C
:100940000895EF92FF920F931F93CF93DF93EC01E3
:1009500081E0888F9B8D8C8D98131AC0E889F98966
:10096000808185FF15C09FB7F894EE89FF89608369
:10097000E889F98980818370806480839FBF81E0EA
:1009800090E0DF91CF911F910F91FF90EF9008952C
:10099000F62E0B8D10E00F5F1F4F0F731127E02E07
:1009A0008C8D8E110BC00FB607FCFACFE889F98940
:1009B000808185FFF5CFCE0183DFF2CFEB8DEC0F89
:1009C000FD2FF11DE35AFF4FF0829FB7F8940B8F74
:1009D000EA89FB8980818062D0CFCF92DF92EF924B
:1009E000FF921F93CF93DF93EC016A017B01122FDB
:1009F000E889F98982E08083C11481EED806E10498
:100A0000F10499F060E079E08DE390E0A7019601B0
:100A1000F5D021503109410951095695479537952F
:100A20002795211580E1380790F0E889F98910822F
:100A300060E874E88EE190E0A7019601DFD02150D4
:100A40003109410951095695479537952795EC8508
:100A5000FD853083EE85FF852083188EEC89FD8926
:100A60001083EA89FB89808180618083EA89FB8920
:100A7000808188608083EA89FB89808180688083A7
:100A8000EA89FB8980818F7D8083DF91CF911F91DF
:100A9000FF90EF90DF90CF9008951F920F920FB6C6
:100AA0000F9211242F938F939F93EF93FF93E091D5
:100AB0004401F09145018081E0914A01F0914B01A0
:100AC00082FD1BC0908180914D018F5F8F732091BB
:100AD0004E01821741F0E0914D01F0E0EC5CFE4FD9
:100AE000958F80934D01FF91EF919F918F912F9161
:100AF0000F900FBE0F901F9018958081F4CF1F921A
:100B00000F920FB60F9211242F933F934F935F9341
:100B10006F937F938F939F93AF93BF93EF93FF93C5
:100B200084E391E0CDDEFF91EF91BF91AF919F9172
:100B30008F917F916F915F914F913F912F910F9086
:100B40000FBE0F901F901895E4E3F1E0138212821C
:100B500088EE93E0A0E0B0E084839583A683B7831A
:100B600088E191E09183808385EC90E0958784878C
:100B700084EC90E09787868780EC90E0918B808B67
:100B800081EC90E0938B828B82EC90E0958B848B50
:100B900086EC90E0978B868B118E128E138E148EBE
:100BA0000895AF92BF92CF92DF92EF92FF920F9390
:100BB0001F93CF93DF936C017B018B01040F151FF3
:100BC000EB015E01AE18BF08C017D10759F069915B
:100BD000D601ED91FC910190F081E02DC6010995BF
:100BE000892B79F7C501DF91CF911F910F91FF906C
:100BF000EF90DF90CF90BF90AF900895A1E21A2EB2
:100C0000AA1BBB1BFD010DC0AA1FBB1FEE1FFF1FB0
:100C1000A217B307E407F50720F0A21BB30BE40B00
:100C2000F50B661F771F881F991F1A9469F7609547
:100C30007095809590959B01AC01BD01CF01089501
:100C4000EE0FFF1F0590F491E02D0994F894FFCF6B
:100C5000CDCCCC3D000000000000803F0000000033
:100C60000000260100000000A104D1055104820407
:060C700023043D042F04E3
:00000001FF
