:1000000061C0000087C0000085C0000083C0000000
:1000100081C000007FC000007DC000007BC00000E8
:1000200079C0000077C0000075C0000073C00000F8
:1000300071C000000C9480276DC000006BC00000F0
:100040000C941A2B67C000000C94DE2D0C94102E1B
:1000500061C000005FC000005DC000005BC0000028
:1000600059C0000057C00000000000080002010055
:100070000003040700000000000000000102040863
:100080001020408001020408102001020408102002
:10009000040404040404040402020202020203032E
:1000A00003030303000000002300260029000000D2
:1000B0000000250028002B0000000000240027007D
:1000C0002A00352E11241FBECFEFD8E0DEBFCDBFF2
:1000D00012E0A0E0B1E0E6ECFDE502C005900D9273
:1000E000A436B107D9F726E0A4E6B2E001C01D921C
:1000F000A932B207E1F710E0C2E6D0E004C02197D0
:10010000FE010E94B22EC136D107C9F70E947E2897
:100110000C94E12E75CF611102C00C94232C613038
:10012000E1F362E0FACF662319F061E00C945F2CF2
:1001300060E0FCCF0E948C2C21E0019709F020E0C8
:10014000822F089590E080E008950F931F93009709
:1001500009F489C06115710509F485C00091A801F1
:100160001091A9012091AA013091AB010E3F1F4FC0
:100170002F4F3F4F09F068C04FEF5FEFBA01409338
:10018000A8015093A9016093AA017093AB0140911B
:10019000A8015091A9016091AA017091AB01DC0105
:1001A0001296ED91FC9180819181A281B38180931F
:1001B000EE029093EF02A093F002B093F1028481DB
:1001C0009581A681B7818093EA029093EB02A09378
:1001D000EC02B093ED0280859185A285B385809372
:1001E000E6029093E702A093E802B093E9028485C7
:1001F0009585A685B7858093E2029093E302A0934C
:10020000E402B093E5021092DE021092DF02109237
:10021000E0021092E1020E94910B86EB9BE090932A
:1002200065028093640290936702809366020E9445
:10023000800A009731F421E030E03093F3022093FC
:10024000F2021F910F9108950091A8011091A90148
:100250002091AA013091AB01DB010D931D932D93E9
:100260003C93139794CF8FEF9FEFEBCF8F929F929A
:10027000AF92BF92CF92DF92EF92FF921F93CF93F4
:10028000DF934B015C011091F50282E090E09093C6
:10029000F3028093F20281149104A104B10441F4A9
:1002A0008091F502811104C08091F402C1E08111B6
:1002B000C0E0C12CD12C76018091F502811106C0DD
:1002C0008091F402811102C0CC23D9F083E090E048
:1002D0009093F3028093F202CC2381F1CCE9DFEF1B
:1002E000111102C00E941A0FCE01DF91CF911F9110
:1002F000FF90EF90DF90CF90BF90AF909F908F9046
:1003000008956AE070E080E090E00E94892B80E12F
:10031000C80E87E2D81EE11CF11C8FEF88169806E4
:10032000A806B80631F0C1E08C149D04AE04BF04E9
:1003300008F0C0E080E00E94B40ABECFD0E0C0E088
:10034000CFCFCF92DF92EF92FF920F931F93CF9375
:10035000DF938F3F910511F008F051C02091F20218
:100360003091F3022330310539F02091F2023091BF
:10037000F3022130310531F424E030E03093F30210
:100380002093F2026A017B01EC0182309105A8F012
:1003900011E0AE01C701B6010E947F0AAB01BC01AA
:1003A000CE011123F9F0DF91CF911F910F91FF90B2
:1003B000EF90DF90CF900C9443118C01000F111F30
:1003C0000C591D4FD8018D919C91892B09F30E94E6
:1003D0004D110297E9F6D801ED91FC91CE010995F6
:1003E000182FD7CF0E94651190E080E0DF91CF9168
:1003F0001F910F91FF90EF90DF90CF9008958FEFB6
:100400009FEFF4CF80E00C94B40ACF93DF9386E0A3
:1004100090E09093F3028093F2020E940D0BEC01A6
:10042000E4E6F2E084E0DF011D928A95E9F70E949C
:10043000B20E1092F3021092F202CE01DF91CF9130
:1004400008958091F40208958091DD0208956093EB
:10045000A8017093A9018093AA019093AB0190E049
:1004600080E00895CF92DF92EF92FF926B017C01C2
:100470009F7720E030E040E859E50E947E2987FF21
:100480002BC020E030E040E05FE3C701B6010E94EE
:10049000B32A87FD0EC020E030E040E05FE3C701F3
:1004A000B6010E940729FF90EF90DF90CF900C9447
:1004B000EB2920E030E040E05FEBC701B6010E948D
:1004C000B32A181684F420E030E0A901C701B60170
:1004D0000E94B72A6B017C01C701B601FF90EF9023
:1004E000DF90CF90089520E030E040E05FE3C70167
:1004F000B6010E940629FF90EF90DF90CF900C94F8
:100500006B298F929F92AF92BF92CF92DF92EF9220
:10051000FF92809120068150823008F0C8C083E0AD
:100520008093200680911F068150823008F0C1C060
:1005300083E080931F0680911E068150823008F070
:10054000BAC083E080931E0680911D0681508230E0
:1005500008F0B3C083E080931D0680911C06815093
:10056000823008F0ACC083E080931C0680911B06AB
:100570008150823008F0A5C083E080931B068091F3
:100580001A068150823008F09EC083E080931A06DC
:10059000809126068150823008F097C083E08093D6
:1005A0002606809119068150823008F090C083E0C1
:1005B00080931906809118068150823008F089C016
:1005C00083E080931806809117068150823008F0EE
:1005D00082C083E080931706C0907C01D0907D019B
:1005E000E0907E01F0907F01A70196016091CF0518
:1005F0007091D0058091D1059091D2050E947E29FD
:10060000882341F0C092CF05D092D005E092D10569
:10061000F092D20582E08EDD91E0811190E090931E
:10062000C4058111EEC080912106811113C0809113
:10063000880190918901A0918A01B0918B018093EA
:10064000FB059093FC05A093FD05B093FE0581E0AA
:10065000809321062091FB053091FC054091FD051A
:100660005091FE0560918401709185018091860111
:10067000909187010E9407296093BC057093BD0586
:100680008093BE059093BF056093FB057093FC05B6
:100690008093FD059093FE05809117068823E9F06D
:1006A000833009F4ABC0082E000C990B18C080E011
:1006B00037CF80E03ECF80E045CF80E04CCF80E078
:1006C00053CF80E05ACF80E061CF80E068CF80E0F8
:1006D0006FCF80E076CF80E07DCF82E090E08093A6
:1006E0001706C090BC05D090BD05E090BE05F09007
:1006F000BF0520E030E04AEF53E4C701B6010E9495
:100700007E29811181C08091A0019091A101A091C9
:10071000A201B091A3018093B0059093B105A0937D
:10072000B205B093B305C0905001D0905101E09054
:100730005201F0905301A70196016091E705709175
:10074000E8058091E9059091EA050E947E298823B9
:1007500041F0C092E705D092E805E092E905F092F9
:10076000EA0584E0E7DC91E0811190E09093C50513
:10077000811191C080912306811113C08091600185
:1007800090916101A0916201B09163018093030691
:1007900090930406A0930506B093060681E080932B
:1007A00023062091030630910406409105065091DE
:1007B000060660915C0170915D0180915E019091EF
:1007C0005F010E9407296093C0057093C105809363
:1007D000C2059093C305609303067093040680934B
:1007E00005069093060680911C06882301F183304C
:1007F00009F44EC0082E000C990B1BC081E090E05C
:100800006ECF109221066DCF20E030E84BE355E427
:10081000C701B6010E947E29811185CF80919C017C
:1008200090919D01A0919E01B0919F0174CF82E0B3
:1008300090E080931C06C090C005D090C105E09068
:10084000C205F090C30520E030E04AEF53E4C70151
:10085000B6010E947E2981118BC080917001909118
:100860007101A0917201B09173018093AC059093D6
:10087000AD05A093AE05B093AF0580911A0688230D
:1008800069F0833009F471C0082E000C990B08C080
:1008900081E090E0CECF10922306CDCF82E090E0B1
:1008A00080931A06C0905401D0905501E0905601F3
:1008B000F0905701A70196016091DB057091DC056E
:1008C0008091DD059091DE050E947E29882341F00C
:1008D000C092DB05D092DC05E092DD05F092DE05EA
:1008E00087E028DC91E0811190E09093C6058111AA
:1008F0008EC080912206811113C080916C0190916D
:100900006D01A0916E01B0916F018093FF059093EE
:100910000006A0930106B093020681E080932206B0
:10092000209168013091690140916A0150916B01F9
:100930006091FF057091000680910106909102067A
:100940000E9407296093FF057093000680930106BB
:100950009093020680911B06882329F1833009F4C5
:1009600053C0082E000C990B20C081E090E098CF76
:1009700020E030E84BE355E4C701B6010E947E2930
:10098000811190CF8091A4019091A501A091A60121
:10099000B091A7018093AC059093AD05A093AE05EF
:1009A000B093AF057FCF82E090E080931B06C090AC
:1009B000FF05D0900006E0900106F090020620E0CE
:1009C00030E04AEF53E4C701B6010E947E2981114D
:1009D000DAC08091740190917501A0917601B09177
:1009E00077018093AC059093AD05A093AE05B093CD
:1009F000AF0580911906882369F0833009F4C0C0DF
:100A0000082E000C990B08C081E090E0CECF109228
:100A10002206CDCF82E090E0809319068090B00549
:100A20009090B105A090B205B090B30520E030E001
:100A300040E85FE3C501B4010E947E29811175C1C0
:100A4000C0900F06D0901006E0901106F0901206AC
:100A5000C701B6010E94B0294B015C012091080139
:100A60003091090140910A0150910B010E947E29A9
:100A700087FFB5C0F7FCB3C08091000190910101E0
:100A8000A0910201B09103018093B4059093B50544
:100A9000A093B605B093B70520E030E040E85FE3EF
:100AA0006091040170910501809106019091070108
:100AB0000E9406299B01AC01C501B4010E94B32A22
:100AC00087FD91C010920F06109210061092110629
:100AD00010921206C0901306D0901406E0901506EE
:100AE000F0901606C701B6010E94B0294B015C01C7
:100AF000209118013091190140911A0150911B0168
:100B00000E947E2987FF7DC0F7FC7BC08091100189
:100B100090911101A0911201B09113018093B80539
:100B20009093B905A093BA05B093BB0520E030E0DF
:100B300040E85FE360911401709115018091160106
:100B4000909117010E9406299B01AC01C501B401D7
:100B50000E94B32A87FD59C0109213061092140602
:100B6000109215061092160680912006882309F42B
:100B70005AC0833009F4D6C0082E000C990B55C01A
:100B800081E090E049CF20E030E84BE355E4C70135
:100B9000B6010E947E29811141CF80917801909108
:100BA0007901A0917A01B0917B018093AC0590937B
:100BB000AD05A093AE05B093AF05809118068823CC
:100BC00031F0833049F0082E000C990B02C082E00E
:100BD00090E08093180622CF81E090E0FACF80E089
:100BE00090E0DC0151CF8FEFC81AD80AE80AF80A62
:100BF000C0920F06D0921006E0921106F0921206F3
:100C000069CF80E090E0DC0189CF8FEFC81AD80A65
:100C1000E80AF80AC0921306D0921406E09215066C
:100C2000F0921606A1CF82E090E0809320066091BA
:100C3000B4057091B5058091B6059091B70512DCA9
:100C40006B017C0120E030E040E853E40E947E2903
:100C50006FEF87FF0EC020E030E0A901C701B601A9
:100C60000E94B32A60E087FD04C0C701B6010E945C
:100C7000822988E058DA6091B8057091B9058091B1
:100C8000BA059091BB05EEDB6B017C0120E030E002
:100C900040E853E40E947E296FEF87FF0EC020E0FA
:100CA00030E0A901C701B6010E94B32A60E087FDC8
:100CB00004C0C701B6010E94822989E034DA60913C
:100CC000B4027091B5028091B6029091B7026F5F45
:100CD0007F4F8F4F9F4F6093B4027093B502809304
:100CE000B6029093B7020E94AE299B01AC016091BD
:100CF000B8027091B9028091BA029091BB020E9431
:100D0000B72A6093B0027093B1028093B2029093BD
:100D1000B302FF90EF90DF90CF90BF90AF909F9085
:100D20008F90089581E090E080CFC090AC05D09086
:100D3000AD05E090AE05F090AF0520E030E040E07A
:100D400050E4C701B6010E947E2981117EC08091C6
:100D5000200190912101A0912201B0912301809363
:100D6000B8059093B905A093BA05B093BB05C090A0
:100D70000B06D0900C06E0900D06F0900E06C70111
:100D8000B6010E94B0294B015C0120912C013091E9
:100D90002D0140912E0150912F010E947E2987FF45
:100DA0003AC0F7FC38C08091240190912501A091B0
:100DB0002601B09127018093B4059093B505A093C7
:100DC000B605B093B70520E030E040E85FE36091FE
:100DD00028017091290180912A0190912B010E9494
:100DE00006299B01AC01C501B4010E94B32A87FD0D
:100DF00016C010920B0610920C0610920D0610925F
:100E00000E0680911F068823C1F08330D9F0082E8A
:100E1000000C990B14C080E090E0DC01CCCF8FEF88
:100E2000C81AD80AE80AF80AC0920B06D0920C0633
:100E3000E0920D06F0920E06E4CF82E090E08093FF
:100E40001F06F5CE81E090E0FACF20E030E040E4EC
:100E500050E4C701B6010E947E2981117EC08091B5
:100E6000340190913501A0913601B0913701809302
:100E7000B4059093B505A093B605B093B705C0909F
:100E80000706D0900806E0900906F0900A06C70110
:100E9000B6010E94B0294B015C01209140013091C4
:100EA000410140914201509143010E947E2987FFF8
:100EB0003AC0F7FC38C08091380190913901A09177
:100EC0003A01B0913B018093B8059093B905A09386
:100ED000BA05B093BB0520E030E040E85FE36091E5
:100EE0003C0170913D0180913E0190913F010E9433
:100EF00006299B01AC01C501B4010E94B32A87FDFC
:100F000016C0109207061092080610920906109259
:100F10000A0680911E068823C1F08330D9F0082E7E
:100F2000000C990B14C080E090E0DC01CCCF8FEF77
:100F3000C81AD80AE80AF80AC0920706D09208062A
:100F4000E0920906F0920A06E4CF82E090E08093F6
:100F50001E066DCE81E090E0FACF20E030E0A901DE
:100F6000C701B6010E947E29811109C020E030E04E
:100F7000A901C501B4010E947E29811158CE80913A
:100F8000480190914901A0914A01B0914B01809391
:100F9000B4059093B505A093B605B093B7058091BD
:100FA0004C0190914D01A0914E01B0914F01809361
:100FB000B8059093B905A093BA05B093BB0580918D
:100FC0001D06882331F0833049F0082E000C990B60
:100FD00002C082E090E080931D0629CE81E090E07F
:100FE000FACFCF92DF92EF92FF921F93CF93DF93CE
:100FF000EAE9F2E080E090E0A0E8BFEB82A393A3EF
:10100000A4A3B5A38FE692E1A3E8BAE3868F978FF6
:10101000A0A3B1A38EED98E0AAEFB3EA84839583F1
:10102000A683B7838DED93E0AAECB1E48087918726
:10103000A287B38787E292E5AFEDB1E88487958711
:10104000A687B7878CED93E2A2E4B3E6808B918B01
:10105000A28BB38BAEE8B2E0B383A283E8E6F2E002
:101060001196FC93EE9381ED91E0918380839383BD
:1010700082839583848397838683918780872CE1FD
:1010800036E0338722872BE136E03587248726E256
:1010900036E03787268728E136E0318B208B2AE13E
:1010A00036E0338B228B29E136E0358B248B20E22E
:1010B00036E0378B268B2FE136E0318F208F2EE103
:1010C00036E0338F228F2DE136E0358F248F978FD6
:1010D000868F87E196E091A380A384E296E093A3B4
:1010E00082A385E296E095A384A38EEA92E015960A
:1010F0009C938E9314978EE992E013969C938E9313
:10110000129780EB92E017969C938E931697C7ECFC
:10111000D5E08091880190918901A0918A01B091D8
:101120008B018CAB9DABAEABBFABECEAF5E0809135
:10113000800190918101A0918201B0918301808B07
:10114000918BA28BB38B8091600190916101A091F2
:101150006201B09163018CAF9DAFAEAFBFAF809124
:10116000580190915901A0915A01B0915B01848B73
:10117000958BA68BB78B8091640190916501A091AE
:101180006601B091670188AF99AFAAAFBBAF8091FC
:101190008C0190918D01A0918E01B0918F0180837F
:1011A0009183A283B3838091900190919101A0914A
:1011B0009201B091930184839583A683B783809134
:1011C000940190919501A0919601B091970180872B
:1011D0009187A287B3878091980190919901A091FE
:1011E0009A01B0919B0184879587A687B78718825B
:1011F00080917C0190917D01A0917E01B0917F0151
:1012000088879987AA87BB87C12CD12C7601C39484
:10121000C982DA82EB82FC8262E082E00E948B006B
:1012200011E01D83188E8091500190915101A09181
:101230005201B091530188A399A3AAA3BBA3C98E5D
:10124000DA8EEB8EFC8E62E084E00E948B001D8FB4
:101250001C868091540190915501A0915601B09146
:1012600057018C8B9D8BAE8BBF8BCD86DE86EF8638
:10127000F88A62E087E00E948B00198B1CA6CDA63D
:10128000DEA6EFA6F8AA61E088E00E948B0019AB09
:101290001CA2CDA2DEA2EFA2F8A661E089E00E9426
:1012A0008B0019A7DF91CF911F91FF90EF90DF90F6
:1012B000CF9008958091C705811103C081E080938C
:1012C000C7058091DF05811103C081E08093DF05B0
:1012D0008091D305811103C081E08093D305809173
:1012E000F305811103C081E08093F3058091EB0544
:1012F000811103C081E08093EB0508954F925F92C6
:101300006F927F928F929F92AF92BF92CF92DF9215
:10131000EF92FF920F931F93F8944090CD0250905C
:10132000CE026090CF027090D002C090C102D090E7
:10133000C202E090C302F090C402452B09F0A4C0A1
:101340009B01AC01241935094609570929013A01C5
:101350000091C9021091CA022091CB023091CC02B7
:1013600048015901840C951CA61CB71C80169106D7
:10137000A206B306A0F40091C5021091C602209106
:10138000C7023091C8020F5F1F4F2F4F3F4F00938E
:10139000C5021093C6022093C7023093C802809200
:1013A000C9029092CA02A092CB02B092CC020091E4
:1013B000C5021091C6022091C7023091C8028092E6
:1013C000D1029092D202A092D302B092D4020093A2
:1013D000D5021093D6022093D7023093D80260939F
:1013E000CD027093CE028093CF029093D002A8EEEC
:1013F000B3E0A30192010E94B82E6C0D7D1D8E1DDD
:101400009F1D6093C1027093C2028093C3029093A8
:10141000C4020091A8011091A9012091AA01309164
:10142000AB010F3F1F4F2F4F3F4FF1F00091A8012D
:101430001091A9012091AA013091AB010E3F1F4FDD
:101440002F4F3F4F89F0C090A801D090A901E090A4
:10145000AA01F090AB0121E08C149D04AE04BF04FE
:1014600008F420E02093DD0278941F910F91FF9003
:10147000EF90DF90CF90BF90AF909F908F907F9034
:101480006F905F904F9008954B015C018418950810
:10149000A608B708A3019201261B370B480B590B6E
:1014A0006415750586059705D0F082169306A40687
:1014B000B50640F420E030E0A90181149104A104B4
:1014C000B10491F4A8EEB3E00E94B82EA7019601F2
:1014D000261B370B480B590BCA01B901C5CF821621
:1014E0009306A406B50670F7A8EEB3E0A501940133
:1014F0000E94B82E6C0D7D1D8E1D9F1DB5CFFECE9A
:10150000CF93DF9300D000D0CDB7DEB71C821B8213
:101510001A8219821092D9021092DA021092DB021A
:101520001092DC02BE016F5F7F4FCE0103960E94D6
:10153000642769817A818B819C810E945C2000975D
:1015400061F4BE016F5F7F4FCE0103960E9470274A
:1015500069817A818B819C812CD50F900F900F909F
:101560000F90DF91CF910895FF920F931F93CF9328
:10157000DF93082F60E070E0CB010E94892BFF24ED
:10158000F3940E94471FEC01892B89F010E0CE3FB5
:101590008FEFD80769F0002361F160E070E0CB01C4
:1015A0000E94892B81E090E0892B59F322C011E041
:1015B00023D5EC01892B21F0CE3F8FEFD80759F7C7
:1015C00011111EC011E0229609F410E00E94F81ECD
:1015D000EC01892B21F0CE3F8FEFD807E1F61111F6
:1015E00011C011E0CE3F8FEFD80709F410E00111D0
:1015F0000BC0CE01DF91CF911F910F91FF90089505
:1016000011E0E4CF11E0F3CF60E070E0CB010E9485
:10161000892B1F25812F90E0C7CFCF93DF93809137
:10162000DD02882321F060E070E0CB014CD635D696
:10163000D0E0C0E0892B71F06AE070E080E090E0DB
:101640000E94892B81E090DF28D62196C03D27E0BB
:10165000D20781F727D60E94B0201092F50210928F
:10166000F4021092EE021092EF021092F002109229
:10167000F1021092EA021092EB021092EC02109228
:10168000ED021092E6021092E7021092E802109228
:10169000E9021092E2021092E3021092E402109228
:1016A000E5021092DE021092DF021092E002109228
:1016B000E1024EEF5FEF6FEF7FEF4093A801509391
:1016C000A9016093AA017093AB011092DD02E1EDD4
:1016D000F2E028E0DF011D922A95E9F71092CD0291
:1016E0001092CE021092CF021092D0021092C90234
:1016F0001092CA021092CB021092CC021092C50234
:101700001092C6021092C7021092C8021092C10233
:101710001092C2021092C3021092C402DF91CF91C4
:101720000895109201031092020310920303109285
:101730000403109200038091090390910A0390938F
:10174000FF028093FE021092FD021092FC021092A2
:10175000F8021092F9021092FA021092FB02109213
:1017600006031092050390E080E00895CF92DF9287
:10177000EF92FF920F931F93CF938C01892B09F067
:1017800055C02091090330910A038091FE02909187
:10179000FF024091090350910A035093FF024093C6
:1017A000FE022817390781F01092FD021092FC0208
:1017B0001092F8021092F9021092FA021092FB02B3
:1017C00010920603109205038091090390910A0379
:1017D000019761F58091050390910603892B21F40F
:1017E0008091AC01811112C0809105039091060394
:1017F0000197E1F48091F8029091F902A091FA0228
:10180000B091FB020197A105B10581F41092F80295
:101810001092F9021092FA021092FB021092AC019F
:1018200082E090E090930603809305038091090382
:1018300090910A03019709F01CC180911F039091B8
:1018400020038017910709F014C180911B03909128
:101850001C03A0911D03B0911E03009709F409C158
:1018600020911A0321110DC040911B0350911C03BC
:1018700060911D0370911E03452B462B472B09F4E5
:10188000F8C020910503309106032230310509F09C
:10189000F0C02091FC022111ECC0FC01C080D1807D
:1018A000E280F38080910003882309F4D3C0809103
:1018B0000C0390910D03892B09F4FDC020910C03BA
:1018C00030910D0381E02230310509F080E0209154
:1018D0000C0330910D03C1E02130310549F0209116
:1018E0000C0330910D03C1E02230310509F0C0E056
:1018F000882309F456C020911603309117034091B4
:10190000180350911903C701B6010E94B32A87FD3D
:1019100014C0209116033091170340911803509181
:101920001903609101037091020380910303909168
:1019300004030E947E2987FD22C020911603309166
:1019400017034091180350911903C701B6010E9473
:10195000B32A181634F520911603309117034091DD
:101960001803509119036091010370910203809153
:101970000303909104030E947E29811112C080917B
:101980000E0390910F03A0911003B0911103892BC6
:101990008A2B8B2B19F481E08093FD0281E08093E8
:1019A000FC02CC2309F456C0209116033091170392
:1019B0004091180350911903C701B6010E947E2976
:1019C00087FF14C02091160330911703409118032C
:1019D00050911903609101037091020380910303F8
:1019E000909104030E94B32A87FF22C0209116031E
:1019F000309117034091180350911903C701B601A4
:101A00000E947E29811126C0209116033091170370
:101A100040911803509119036091010370910203E2
:101A200080910303909104030E94B32A181694F442
:101A300080910E0390910F03A0911003B0911103B8
:101A4000892B8A2B8B2B19F481E08093FD0281E096
:101A50008093FC0281E09091FC02911180E08093E0
:101A60000003C0920103D0920203E0920303F092BC
:101A70000403012B09F067C18091050390910603CF
:101A8000892BD9F410920B031092FC028091AC01C7
:101A9000882379F082E090E0909306038093050319
:101AA0001092AC012091090330910A0381E0232BAD
:101AB000E9F080E01BC081E00ACF1092AC01809178
:101AC0000B03882349F01092FD0210920603109236
:101AD000050310920B03EDCF8091090390910A0347
:101AE000892BE1F08091FC021092FC022091050309
:101AF000309106032230310509F45EC088F42115C7
:101B0000310509F448C02130310509F4F3C01092C1
:101B1000FD021092FC0210920B0338C081E0E6CF68
:101B20002330310509F4B1C02430310581F74091EB
:101B3000F8025091F9026091FA027091FB0241158E
:101B400051056105710561F0415051096109710943
:101B50004093F8025093F9026093FA027093FB02EB
:101B60004091F8025091F9026091FA027091FB02E3
:101B7000452B462B472BD9F42091070330910803BE
:101B80002130310509F046C01092FD021092060383
:101B9000109205030CC08091AC01882341F082E0D3
:101BA00090E090930603809305031092AC0110928D
:101BB000F6028091FD02CEC08823C9F380910E0306
:101BC00090910F03A0911003B091110318161906FC
:101BD0001A061B060CF07DC08091090390910A0340
:101BE000019709F076C080910E0390910F03A091A8
:101BF0001003B09111038093F8029093F902A0931F
:101C0000FA02B093FB0283E090E090930603809386
:101C10000503CDCF4091120350911303609114033B
:101C200070911503452B462B472BA9F01092FD020E
:101C30008091120390911303A0911403B0911503A6
:101C40008093F8029093F902A093FA02B093FB02FA
:101C500081E090E0DACF882399F08091AD019091F6
:101C6000AE01A091AF01B091B0018093F8029093C2
:101C7000F902A093FA02B093FB0284E090E0C5CF92
:101C80001092FD0282E090E0C0CF8091F802909126
:101C9000F902A091FA02B091FB020097A105B105EB
:101CA00059F00197A109B1098093F8029093F902C4
:101CB000A093FA02B093FB028091F8029091F9028E
:101CC000A091FA02B091FB02892B8A2B8B2B09F091
:101CD0006ECF8091AD019091AE01A091AF01B09116
:101CE000B001892B8A2B8B2B09F44ECF81E0809396
:101CF000FD02B3CF4091F8025091F9026091FA02CF
:101D00007091FB02411551056105710561F041506B
:101D10005109610971094093F8025093F9026093E7
:101D2000FA027093FB024091F8025091F90260911F
:101D3000FA027091FB02452B462B472B09F037CF57
:101D40008111C7CF9FCF8091F602882309F431CF4C
:101D50008091F702CF911F910F91FF90EF90DF904C
:101D6000CF90089510920103109202031092030382
:101D700010920403109200031092060310920503C0
:101D80001092FF021092FE021092200310921F0385
:101D90001092FD021092FC021092F8021092F902C9
:101DA0001092FA021092FB021092F7021092F602C1
:101DB00010921B0310921C0310921D0310921E031D
:101DC00010921A0310921603109217031092180320
:101DD0001092190388EE93E0A0E0B0E08093AD018B
:101DE0009093AE01A093AF01B093B0011092120393
:101DF00010921303109214031092150310920E0305
:101E000010920F03109210031092110310920D0301
:101E100010920C0381E08093AC0110920B0310929E
:101E20000A0310920903109208031092070390E02E
:101E300080E008958091090390910A03892B19F598
:101E40008091AC01882351F080910B03811106C071
:101E500081E08093F7028093F602089520910B03AE
:101E60003091AC0181E090E0332311F090E080E00C
:101E700030E082239323892B21F01092F70281E036
:101E8000EACF1092F602089582E090E0FA01918381
:101E900080838FEF9FEF0895CF93DF93EA01009740
:101EA00011F00E94CD211982188290E080E0DF912C
:101EB000CF910895DB01009719F48FEF8C9308956B
:101EC0002EEF2C930F968F30910508F033C0FC0154
:101ED000E459F04F0C94B22E980F960F940F920F76
:101EE000900F8C0F8E0F8A0F880F860F830F7F0F36
:101EF0007B0F810F9A0F80E311968C93089589E2EE
:101F0000FBCF82E2F9CF11961C92089583E2F4CFC1
:101F100081E2F2CF81E1F0CF87E2EECF8AE2ECCF2F
:101F200080E1EACF84E2E8CF88E2E6CF86E2E4CF40
:101F300081E3E2CF80E2E0CF80912D0390912E03E8
:101F4000089590932E0380932D03089580912C0380
:101F5000089590912C03892B80932C030895982F3A
:101F6000909580912C03892380932C030895809170
:101F70002B0308958091290390912A0308956115F8
:101F8000710559F0FB0130E020E070E060E02417BB
:101F9000350719F06115710511F0CB010895A08185
:101FA000B181A817B90709F4BF012F5F3F4F3696DB
:101FB000EECF80912F0381111CC062D268D2909322
:101FC0002203809321030E94E0190E94F21990934A
:101FD0002603809325030E94621E0E94691E90932F
:101FE00024038093230381E080932F0390E080E01B
:101FF000089584EF9FEF08958F929F92AF92BF92C2
:10200000CF92DF92EF92FF920F931F93CF93DF93C4
:10201000CDB7DEB72A970FB6F894DEBF0FBECDBF9F
:102020001A86198618861F821E821D821C821B82B8
:102030001A82198280912F0307EF1FEF882309F47A
:102040009CC08E010D5F1F4F9E012B5F3F4FAE0165
:10205000495F5F4FBE01675F7F4F90E080E00E9465
:10206000E21F8C01009721F00596029708F0DBC073
:1020700029853A852115310509F402C1ED80FE80DC
:102080004B815C81B701640F751F8F81988586171E
:10209000970708F4F5C0E20EF31ED7019C91903C1F
:1020A00009F07FC04230510508F47BC011968C9135
:1020B00040912D0350912E03452B09F49CC0913F74
:1020C00008F071C02CE1290F2D3008F48BC02DE2EF
:1020D000290F203108F489C0903C21F481508230CE
:1020E00008F483C088E3890F8B3008F481C09AE537
:1020F000C92E9FE0D92EE4E4FFE06D817E81AE0120
:102100004F5F5F4F89859A8509955C01C114D104A1
:10211000A1F189809A808114910479F18B819C814D
:102120008815990508F487C010E000E04B815C81B8
:1021300070E060E0C7010E94DA2E01151105E9F494
:1021400049815A8169857A858D819E81680F791FC1
:10215000C501F6010995E980FA800D811E812F8164
:10216000388549855A856FEF7FEF81E090E00E94C6
:102170007E1F8C01892B09F056C0C8012A960FB624
:10218000F894DEBF0FBECDBFDF91CF911F910F91AD
:10219000FF90EF90DF90CF90BF90AF909F908F9087
:1021A000089580E085CF30E020E0220F331FF90151
:1021B000EF5DFC4F0190F081E02D309709F497CF4F
:1021C000892F90E00995009709F491CFDC011296D0
:1021D000ED91FC9113971496CD90DC90309709F017
:1021E0008CCF1FC021E030E0E0CF22E030E0DDCF37
:1021F00023E030E0DACFD12CC12CECE4FFE09F3FAC
:1022000009F07BCFE0912103F0912203309721F474
:10221000C90104EF1FEF0CC08FEF90E00995009704
:10222000A9F604EF1FEF89859A85009709F4A5CFD9
:102230000E94CD21A2CF0E94AB208C0189859A8576
:102240000E94CD2170E060E0C4010E944420988784
:102250008F830E947B1F9E838D836F81788561159C
:10226000710559F0C8010E9459239A87898706EFA2
:102270001FEF892B09F058CF59CF08EF1FEF56CF2A
:1022800008EF1FEFD0CF20912F03222319F020E079
:102290000C94F71987EF9FEF089580912D0390918B
:1022A0002E0308950E946E1E0E94C81DF5D0E1E223
:1022B000F3E088E0DF011D928A95E9F710922F0381
:1022C00090E080E008950C94251C21E040E050E06F
:1022D000BA010C94F71986E090E0FA0191838083AB
:1022E00090E080E0089547E050E064ED71E047CE73
:1022F000DF92EF92FF920F931F93CF93DF938A01A8
:10230000EC01C60FD71FE0903303F0903403D9805F
:102310000E949320D816190678F082E090E0F80128
:10232000918380838EEF9FEFDF91CF911F910F916B
:10233000FF90EF90DF900895EF2841F482E090E065
:10234000F8019183808384EF9FEFEECF89818093A2
:10235000320390E00196F8019183808390E080E061
:10236000E3CFCF93DF93EA010E94D61C882321F0AC
:102370000E94A0200E94D71C82E090E0998388836D
:102380008BEF9FEFDF91CF910895CF93DF93EB0118
:1023900086E0FB0111928A95E9F78FEF8883D6DDFD
:1023A0008983E5DD8A83E6DD9D838C83DF91CF9190
:1023B0000895CF93DF93EA010E94D91C811109C0CF
:1023C00082E090E09983888385EF9FEFDF91CF9142
:1023D000089590E080E0B5DD81E090E09983888306
:1023E00090E080E0F3CF0F931F93CF93DF93EA0148
:1023F0008C01060F171F0E94D91C81110BC082E0AF
:1024000090E09983888385EF9FEFDF91CF911F91B3
:102410000F910895F8018181823038F082E090E0D8
:10242000998388838EEF9FEFF0CF81E090E089DD84
:1024300088E090E09983888390E080E0E6CFCF93B6
:10244000DF930097D1F4EB01FB01329686E0DF01C8
:102450001D928A95E9F78FEF888385E089831A8238
:102460000E9493208B830E9492209D838C8381E025
:102470008E838F83DF91CF910895DF91CF911ACD15
:1024800083E791E190933103809330030895809125
:10249000300390913103089510923103109230036C
:1024A000089580913303909134030895411105C03C
:1024B000611571058105910561F060933303709397
:1024C000340380933503909336034093370381E0C0
:1024D000089580E00895FF920F931F93CF93DF93A9
:1024E0008A01EC01C60FD71FF9800E949320F816CD
:1024F000190668F082E090E0F801918380838EEF06
:102500009FEFDF91CF911F910F91FF9008956C8104
:102510007D818E819F814B81C9DF811108C082E05E
:1025200090E0F8019183808384EF9FEFEACF898167
:102530008093320390E00196F8019183808390E0CC
:1025400080E0DFCFCF93DF93EA01FC01E60FF71FB6
:1025500064817581868197814381A8DF811109C0DB
:1025600082E090E09983888384EF9FEFDF91CF91A1
:10257000089581E090E09983888390E080E0F6CF31
:10258000E3E3F3E04081518162817381480F511D83
:10259000611D711D40835183628373830895CF93BE
:1025A000C09132034C2F50E060913303709134039B
:1025B00001960E94D12E8C2FE3DF10923203CF912F
:1025C0000895009799F480913303909134032FEF8D
:1025D000FB012083892B59F02091320330E02F5FDB
:1025E0003F4F2417350719F4CB01D9CF63CC089599
:1025F000009799F480913303909134032FEFFB01FE
:102600002083892B59F02091320330E02F5F3F4F18
:102610002417350719F4CB01C2CF4CCC089523E120
:10262000AC01249FC001259F900D1124E0913C0333
:10263000F0913D03E80FF91F2381348122503109C5
:1026400081E02230310508F080E008950F931F9358
:10265000CF93DF9300913E0310913F03D0E0C0E0A1
:1026600080E00C171D0749F491E0811190E0892F5B
:10267000DF91CF911F910F9108958111F5CFCE0178
:10268000CEDF2196EECFA0913C03B0913D03109791
:1026900029F120913E0330913F0382179307F0F414
:1026A00053E1589F9001599F300D1124A20FB31F81
:1026B000ED91FC911197309789F012968C916817E3
:1026C00068F48BE0689FE00DF11D112480819181F9
:1026D000892B21F081E09281491708F080E008956C
:1026E0009C0143E1429FC001439F900D1124E09162
:1026F0003C03F0913D03E80FF91F8385823091F48C
:1027000081E090E0658176814091B1015091B20104
:102710006417750711F490E080E0892B19F081E0CF
:10272000232B09F080E00895EF92FF920F931F93FF
:10273000CF93DF93EA01FC01E60FF71F02811381BB
:10274000E480F5804F2D6E2DC8019DDF81110DC0F5
:1027500082E090E0998388838EEF9FEFDF91CF91A5
:102760001F910F91FF90EF900895C80158DF8823C3
:1027700039F082E090E09983888388EF9FEFEECF75
:102780001093B8010093B701E092B901F092BA0139
:1027900081E090E09983888390E080E0DFCFCF9262
:1027A000DF92EF92FF920F931F93CF93DF937A0103
:1027B000EC01C60FD71FC090B701D090B8010091AF
:1027C000B9011091BA01412F602FC6015CDF811160
:1027D00010C082E090E0F701918380838AEF9FEF41
:1027E000DF91CF911F910F91FF90EF90DF90CF90ED
:1027F0000895C60114DF882341F082E090E0F701DC
:102800009183808388EF9FEFEBCF4C815D816E8158
:102810007F819A8189818F3F41F082E090E0F701CA
:10282000918380838EEF9FEFDBCFE3E1EC9D9001FE
:10283000ED9D300D1124E0913C03F0913D03E20F3A
:10284000F31F0190F081E02D2BE0029FE00DF11DC0
:1028500011240190F081E02D27E0129FE00DF11D81
:102860001124808391838B81828343835483658386
:1028700076831F5F1093BA0181E090E0F7019183A6
:10288000808390E080E0ACCFEF92FF920F931F9394
:10289000CF93DF937A018C01060F171FC0913C0381
:1028A000D0913D03209781F021E030E0F801828152
:1028B000938140913E0350913F038417950710F098
:1028C00030E020E0232B71F482E090E0F701918367
:1028D00080838EEF9FEFDF91CF911F910F91FF903B
:1028E000EF90089543E1489F9001499F300D1124D6
:1028F000C20FD31F94DE882341F082E090E0F701FD
:102900009183808388EF9FEFE6CFF80124813581A2
:1029100020383105C8F687818111D6CF4181842FB7
:1029200090E08F7E009741F082E090E0F701918384
:10293000808386EF9FEFCFCF4F833E832D83268109
:1029400028871986223010F421E0288721E030E022
:10295000F70131832083BFCF88E090E0FA019183B3
:10296000808390E080E00895FB018FEF808381E118
:1029700081838FEF9FEF9383828380E890E095833C
:102980008483168217820895FB018FEF808391E084
:10299000918382839383848384E3858381E090E0C1
:1029A000978386830895DF92EF92FF920F931F9390
:1029B000CF93DF93EA01FC01E60FF71F818181309D
:1029C00071F082E090E0998388838FEF9FEFDF9131
:1029D000CF911F910F91FF90EF90DF90089582812A
:1029E0009381D4802581E680F78000913C0310918B
:1029F0003D030115110539F482E090E09983888345
:102A00008CEF9FEFE4CF40913E0350913F0384173A
:102A1000950738F082E090E0998388838EEF9FEFEE
:102A2000D6CF892B39F082E090E09983888386EFB6
:102A30009FEFCDCF8D2D8D7FB1F72130A1F781E0B4
:102A4000D11006C091E0E916F10431F080E004C035
:102A5000E2E0EE16F104D0F3882329F390E080E061
:102A6000DEDD882339F082E090E09983888388EF67
:102A70009FEFADCFF801D38681E08487F686E586A7
:102A8000108A178681E090E09983888390E080E047
:102A90009ECF4CE050E06EEF71E071CA8F929F9232
:102AA000BF92CF92DF92EF92FF920F931F93CF933B
:102AB000DF93EA01FC01E60FF71F82819381048115
:102AC000B580E0913C03F0913D03309791F482E0B2
:102AD00090E0998388838CEF9FEFDF91CF911F91D6
:102AE0000F91FF90EF90DF90CF90BF909F908F90CD
:102AF000089520913E0330913F038217930738F0E9
:102B000082E090E0998388838EEF9FEFE6CF23E108
:102B1000289F6001299FD00C1124EC0DFD1DE08041
:102B2000F180E114F10499F28281081748F78BE0F3
:102B3000089F80011124E00EF11EF7018081918130
:102B4000892B29F6BB20E1F2F7E0BF9E400111245A
:102B5000C4010E949421F70191838083E0913C039A
:102B6000F0913D03EC0DFD1D0190F081E02DE00F93
:102B7000F11F80819181009739F482E090E0998380
:102B800088838DEF9FEFA9CFA40170E060E00E94E1
:102B9000DA2E80913C0390913D03C80ED91EF601B8
:102BA00080819181080F191FF801B28281E090E0C5
:102BB0009983888390E080E090CFAF92BF92CF92CC
:102BC000DF92FF920F931F93CF93DF93EA01FC01F3
:102BD000E60FF71F82819381F48000913C031091EE
:102BE0003D030115110581F482E090E0998388830B
:102BF0008CEF9FEFDF91CF911F910F91FF90DF90AE
:102C0000CF90BF90AF90089520913E0330913F0345
:102C10008217930738F082E090E0998388838EEFE3
:102C20009FEFE8CF2FEF2F0D2C3FA8F723E1289F30
:102C30006001299FD00C11240C0D1D1DF80180810D
:102C40009181892B89F6FBE0FF9E50011124C5017B
:102C50000E949421F80191838083E0913C03F091DC
:102C60003D03EC0DFD1D80819181009739F482E0D8
:102C700090E0998388838DEF9FEFBCCFA50170E032
:102C800060E00E94DA2EE0913C03F0913D03EC0DF0
:102C9000FD1DF28281E090E09983888390E080E0DE
:102CA000A9CFCF92DF92EF92FF920F931F93CF9312
:102CB000DF93860F971FFC010281138180913C03F3
:102CC00090913D03892B81F082E090E0FA0191839D
:102CD00080838CEF9FEFDF91CF911F910F91FF9039
:102CE000EF90DF90CF900895C801B0E0A0E0019789
:102CF000A109B1098F3F9F4FA105B10540F082E0C6
:102D000090E0FA01918380838EEF9FEFE4CF7A0108
:102D100083E1809F6001819FD00C1124C6010E9435
:102D20009421EC01009741F482E090E0F701918357
:102D300080838DEF9FEFCFCFA60170E060E00E940F
:102D4000DA2ED0933D03C0933C0310933F030093CE
:102D50003E0390E080E02FEF3FEF41E061E070E064
:102D60008017910741F481E090E0F701918380831F
:102D700090E080E0B0CF3A8B298B1B864C877E8712
:102D80006D87188A1F8601966396EACFCF92DF92ED
:102D9000EF92FF920F931F93CF93DF93EC01D12C0F
:102DA000C12C10E000E0F12CE12C6A8170E00617E4
:102DB0001707BCF0660F771FAE014F5E5F4FC7016C
:102DC0000E94F921009721F02FEF3FEF3A8B298BDA
:102DD000DF91CF911F910F91FF90EF90DF90CF90F7
:102DE0000895E881F981EC0DFD1D438154818D85A5
:102DF0009E85489F9001499F300D589F300D1124AA
:102E0000C90101960115110519F44F8144FD04967D
:102E100061E070E00E944420E816F90608F47C01A5
:102E20000F5F1F4F8BE0C80ED11CBFCFF8942091CD
:102E30003A0330913B0381E02115310509F080E030
:102E4000232B09F0789408952F923F924F925F922E
:102E50006F927F928F929F92AF92BF92CF92DF92AA
:102E6000EF92FF920F931F93CF93DF933C01660E77
:102E7000771EF301828193814C01B12CA12CC0916A
:102E80003C03D0913D03209769F021E030E0609150
:102E90003E0370913F038617970710F030E020E063
:102EA000232BD1F482E090E0FA01918380838EEFAE
:102EB0009FEFDF91CF911F910F91FF90EF90DF90E7
:102EC000CF90BF90AF909F908F907F906F905F90CA
:102ED0004F903F902F9008958092BB019092BC013B
:102EE000A092BD01B092BE0163E1689F9001699F0D
:102EF000300D1124C20FD31FF3018181833040F0C4
:102F000082E090E0FA019183808386EF9FEFD1CF3A
:102F10002A012B813C81232BF1F4288139819F8167
:102F200091FF2EC0232B09F46FC0209141039A8199
:102F3000422F490F5527551FBA0141E050E0613833
:102F4000710514F050E040E0452B09F45DC02A877C
:102F5000920F909341038150823008F481C066DF64
:102F6000882309F4D8C0F3018181813009F48DC030
:102F700008F47BC0823009F4C6C090E080E0ADC0A8
:102F8000232B09F441C0209140039A81E22FE90FDD
:102F9000FF27FF1F41E050E0ED3FF10514F050E046
:102FA00040E0452B89F12A87920F90934003D3CFBD
:102FB000A081B181A20FB31F11966C91060F111D54
:102FC0000196295F3F4F8417950794F38D859E8561
:102FD000089F1001099F300C189F300C1124C11458
:102FE000D104D1F48F8184FF17C00E949220F5E0B4
:102FF0002F0E311C21E08215930508F420E0A70173
:10300000455F5F4F21110EC082E090E0F201918395
:10301000808387EF9FEF4DCF0E9492202FEF221ADF
:10302000320AE8CF88819981E80EF91EF7011483EE
:103030000383FFEFCF1ADF0A7A018A818C151D0402
:1030400009F00CF48CCFE881F981EE0DFF1D42816F
:1030500050E030E020E010E000E090E080E0B3CF0E
:10306000F12CE12CD12CC12CE8CF81E090E09C83A5
:103070008B83ECDA882309F480CF81E090E00E9412
:10308000A10F80E40E94AF0F78CF89899A890196B9
:1030900061F083E090E09C838B8382E090E00E946B
:1030A000A10F80E40E94A90F68CF8D819E8120919D
:1030B000B1013091B20182179307D1F46091B5014B
:1030C0007091B601AE014F5E5F4F8091B301909158
:1030D000B4010E9418230097E1F2789422E030E0D6
:1030E000F20131832083892B99F08DEF9FEFE1CEA0
:1030F00089288A288B2869F6892B59F6CE0146DE65
:10310000188A1F86E8CF82E090E09C838B8335CFBE
:1031100090E080E0CECE82E090E0F2019183808367
:1031200085EF9FEFC6CE8F929F92AF92BF92CF92C4
:10313000DF92EF92FF920F931F93CF93DF93EA01F9
:103140008C01060F171FF8018181833098F082E00F
:1031500090E09983888386EF9FEFDF91CF911F9155
:103160000F91FF90EF90DF90CF90BF90AF909F9026
:103170008F90089580913C0390913D03892B61F0DD
:1031800081E090E020913E0330913F03232B11F426
:1031900090E080E0892B39F482E090E09983888385
:1031A0008EEF9FEFDACF42DE882309F4DFC0F8010B
:1031B0008181813009F495C0E8F0823099F4209142
:1031C0003E0330913F03E0913C03F0913D0390E0DA
:1031D00080E041E050E02817390709F0BDC036DA39
:1031E000811117C0789481E090E09983888390E002
:1031F00080E0B3CF20913E0330913F03E0913C0348
:10320000F0913D0390E080E041E050E0281739075D
:1032100041F481E090E00E94A10F80E40E94AF0F92
:10322000E1CF63817481672B11F05483438301964E
:103230007396ECCFE0913C03F0913D03E00FF11F5A
:103240002381348122303105D9F4218932892F3FFD
:103250003F4FB1F4258136814091B1015091B201C7
:103260002417350761F5AF014F5E5F4F6091B501DF
:103270007091B6018091B3019091B4010E9418231E
:10328000EFEFCE1ADE0AEE0AFE0A0D5E1F4F4091E6
:103290003E0350913F0370E060E0C416D506E60699
:1032A000F7063CF5009731F27894892B09F49BCF0F
:1032B00082E090E0998388838DEF9FEF4ECFC11419
:1032C000D104E104F104E1F6232BD1F6CF015EDD58
:1032D000E0913C03F0913D03E00FF11F108A178647
:1032E000CFCF10E000E090E080E0C12CD12C76013F
:1032F000CECF0097C9F610E000E0812C912C54014C
:1033000083E0E82EF12C1AC0E0913C03F0913D03DC
:10331000E00FF11F83819481029749F4F482E382E4
:1033200082E090E00E94A10F80E40E94A90FFFEFCD
:103330008F1A9F0AAF0ABF0A0D5E1F4F80913E038E
:1033400090913F03B0E0A0E088169906AA06BB065C
:10335000DCF290E080E0A8CF638174816230710577
:1033600011F4548343830196739635CF82E090E045
:103370009983888385EF9FEFF0CE0097B9F48FEFA4
:10338000FB0180832091BB013091BC0143E1429F4E
:10339000C001439F900D1124E0913C03F0913D0347
:1033A000E80FF91F8285FB01818308950C945A0F61
:1033B00088E090E0FA019183808390E080E00895B6
:1033C00010923B0310923A03ECE3F3E086E0DF0156
:1033D0001D928A95E9F789E495E1909339038093EA
:1033E00038030895809138039091390308952F92FE
:1033F0003F924F925F926F927F928F929F92AF9285
:10340000BF92CF92DF92EF92FF920F931F93CF93D1
:10341000DF93CDB7DEB760970FB6F894DEBF0FBE6F
:10342000CDBFF894E0913A03F0913B033196F093CD
:103430003B03E0933A037894A0913C03B0913D03A1
:10344000BA83A983109709F4FAC1E0913E03F09181
:103450003F03EF2B09F4F3C128874B875C876D8707
:103460007E879A878987B88BAF87312C212CF12CE6
:10347000512C412C80913E0390913F032816390630
:1034800010F4FF2029F1F89480913A0390913B03C6
:10349000019790933B0380933A037894C20160961E
:1034A0000FB6F894DEBF0FBECDBFDF91CF911F9155
:1034B0000F91FF90EF90DF90CF90BF90AF909F90D3
:1034C0008F907F906F905F904F903F902F900895D6
:1034D000B10190E080E087D4682EEF85F88987817C
:1034E00081FD3DC0838194810397C9F52581368193
:1034F0003C832B8389859A852817390781F5C1017B
:10350000EFD8782E8823A9F1AF85B8891F968D91C1
:103510009C915097019621E01D964D915C918417E6
:10352000950709F020E02F83B12CA12CEF85F889B5
:1035300082818A151B0419F014F0FF20E9F0F88548
:10354000FF2309F46CC1AF85B88950961C921E9276
:103550001F97662021F0B10190E080E046D4FFEF94
:103560002F1A3F0A2F8538892D5E3F4F388B2F87C2
:1035700081CFB1E0BF83D8CFBED49E838D83E88551
:10358000EE23E9F0772009F43CC1AF85B8891F9696
:103590008D919C91892B79F0BBE0BA9DC001BB9DB8
:1035A000900D1124AF85B889ED91FC91E80FF91FBA
:1035B00085819681F2D6BFEFAB1ABB0AB7CF81E007
:1035C000772039F0EF85F88927853089232B09F09A
:1035D00080E0F82EE12CA114B10439F4AF85B8894C
:1035E0001796EC90E4FAEE24E0F8BBE0BA9D600197
:1035F000BB9DD00C1124882309F424C1AF85B88960
:10360000ED91FC911197EC0DFD1D438154811D96A8
:103610002D913C91429FC001439F900D529F900D70
:103620001124E1105DC001969087878361E070E00E
:103630008781908529D5EF85F88921893289008194
:1036400011810C0D1D1D2F3F320709F44BC0BC0129
:10365000C9010E945923D80116969C938E93159701
:10366000AF85B889ED91FC911197EC0DFD1D058199
:1036700016810115110509F4CDC0ED81FE810E0FF3
:103680001F1F1A968C918A0DD8018C93E1102FC0C0
:103690000F5F1F4FAF85B889ED91FC91EC0DFD1DBB
:1036A00012870187AF85B889ED91FC91EC0DFD1D66
:1036B00085819681892B09F4A4C08091B1019091F4
:1036C000B2012B813C812817390709F465C07720A6
:1036D00011F001851285912C812C1A8219824AC021
:1036E0000596A2CF21D6F80196838583B9CF8B8525
:1036F0009C85AD85BE85F80181839283A383B483C5
:103700000B5F1F4FC7CFE080F180E80CF91CD70199
:1037100013966D917C9114978C918F3F09F473C02F
:10372000E1E0F0E002C0EE0FFF1F8A95E2F7CF0163
:10373000092E000CAA0BBB0BFB0140815181628159
:10374000738184239523A623B72321E0892B8A2B19
:103750008B2B09F420E0D8012C93D70111968C9182
:10376000080F111DE981FA813196FA83E983F7E0A8
:103770008F0E911CAF85B889ED91FC91EC0DFD1D6C
:10378000828129813A818217130611F00CF0BBCF98
:10379000772011F0128701873F81332391F1AF85A4
:1037A000B889ED91FC91EC0DFD1D61E070E0878121
:1037B00090856AD4AF85B889ED91FC91EC0DFD1D23
:1037C000E780F08445815681E1E0F0E0662011F069
:1037D000F0E0E0E00D811E819C01B101882799276E
:1037E0008E1B9F0B8BD32C01892B59F0EF85F88909
:1037F00080819181C80ED91ED60115968D919C911C
:10380000CCD5F12CD8CEF701418150E0C8010E94FF
:10381000D12EA3CF86EF482E55245A94CCCEEF85D7
:10382000F889878590890196908B878725853685CD
:103830008217930709F08DCE108A17868ACE512CF5
:10384000412C21CE10E000E02DCF2F923F924F92DD
:103850005F926F927F928F929F92AF92BF92CF9220
:10386000DF92EF92FF920F931F93CF93DF9380919C
:103870003C0390913D0310E000E0892BA9F0D6DADB
:103880000AEF1FEF882381F020903E0330903F0322
:10389000C0913C03D0913D03D12CC12C10E000E03D
:1038A0002C143D04A9F47894C801DF91CF911F91A5
:1038B0000F91FF90EF90DF90CF90BF90AF909F90CF
:1038C0008F907F906F905F904F903F902F900895D2
:1038D000C6010E947013882309F18B819C81039794
:1038E000E9F48F859889892BC9F0B60190E080E0D2
:1038F0007AD221E030E0882311F030E020E0442447
:103900005524421A530AB12CA12C912C812C8A8166
:103910008815190409F038F4188A1F864FEFC41A65
:10392000D40A6396BDCFE881F981EA0DFB1D85813C
:103930009681892BA1F161E070E087819085A4D305
:103940003C01D9D28C01E881F981EA0DFB1D81850A
:10395000928525813681200F311FAC01421B530B0C
:103960009A0147815085421B530B70E060E00E9432
:10397000DA2EE881F981EA0DFB1DE780F0844581AC
:1039800056819301B601C201B9D28C01892B39F05D
:10399000E881F981EA0DFB1D85819681FED45FEFF8
:1039A000851A950A8BE0A80EB11CB1CF3FCA789456
:1039B00008952F923F924F925F926F927F929F92C3
:1039C000AF92BF92CF92DF92EF92FF920F931F932D
:1039D000CF93DF9300D000D000D0CDB7DEB70091F9
:1039E0003C0310913D03992493940115110509F4AA
:1039F0003EC0A0903E03B0903F0318DA982E882373
:103A0000B1F110923D0310923C0310923F031092CB
:103A10003E0310924003109241038FEF9FEFDC01B1
:103A20008093BB019093BC01A093BD01B093BE01F4
:103A300078947AD31E830D83C12CD12C7601C501D5
:103A4000B0E0A0E089839A83AB83BC8322242A94CC
:103A5000322C89819A81AB81BC81C816D906EA06CD
:103A6000FB06F4F0C80199D480E40E94AF0F892DC1
:103A700026960FB6F894DEBF0FBECDBFDF91CF9173
:103A80001F910F91FF90EF90DF90CF90BF90AF907C
:103A90009F907F906F905F904F903F902F900895F0
:103AA000AD81BE8115968D919C9116972091B101A3
:103AB0003091B20182179307D1F451968D919C9168
:103AC000E6D5ED81FE8180819181B12CA12C412C24
:103AD000512C3201892B89F5BFEFCB1ADB0AEB0A97
:103AE000FB0AED81FE817396FE83ED83B2CFC11494
:103AF000D104E104F10429F7892B19F7ED81FE8146
:103B0000818992898F3F980709F021D5AD81BE81C7
:103B100052963C922E925197D4CF8A0D9B1DDC0178
:103B20008D919C91009709F038D4BFEF4B1A5B0A36
:103B30006B0A7B0AEBE0AE0EB11CAD81BE818D91AC
:103B40009C91119712964C9150E070E060E0441601
:103B50005506660677060CF320D4BECFCF93DF93CD
:103B6000EA0127DF811109C082E090E09983888310
:103B700085EF9FEFDF91CF91089581E090E00E9463
:103B8000A10F81E090E09983888390E080E0F2CFFC
:103B900010DF1092390310923803089542E050E08C
:103BA00066E472E00C94BF0FFF920F931F93CF93C4
:103BB000DF938A01EC01C60FD71FF980B4D20897B2
:103BC000F816190671F068F082E090E0F801918330
:103BD00080838EEF9FEFDF91CF911F910F91FF9028
:103BE00008956C817D818E819F814B810E94561248
:103BF000811108C082E090E0F8019183808384EF16
:103C00009FEFE9CFF9800E9451124F2D50E0BE0185
:103C1000685F7F4F0E94D12E89810E94C01281E08F
:103C200090E0F8019183808390E080E0D4CFDF9230
:103C3000EF92FF920F931F93CF93DF938A01EC01D2
:103C4000C60FD71F0E9451127C01D9806CD2DD2093
:103C500059F0029721E030E0D816190619F010F05B
:103C600030E020E0232B79F482E090E0F8019183AA
:103C700080838EEF9FEFDF91CF911F910F91FF9087
:103C8000EF90DF900895EF2841F482E090E0F80192
:103C90009183808384EF9FEFEECFF9800E945112D1
:103CA0004F2D50E0BE016E5F7F4F0E94D12E898163
:103CB0000E94C01281E090E0F8019183808390E03F
:103CC00080E0D9CF8EEC9DE1909343038093420333
:103CD0000895809142039091430308950895FC0153
:103CE00011821082938382830895DB011D921C92BE
:103CF000DC011296ED91FC9113977183608313960A
:103D00007C936E9312970895FC0180819181DB0171
:103D10008D939C93A081B181109741F08D919C91DE
:103D200091838083892B11F4F383E2830895FC014E
:103D300080819181DB018D939C93892B11F4738396
:103D40006283718360830895FC01118210829383E2
:103D500082830895CF93DF9300D0CDB7DEB71A8268
:103D60001982F894BE016F5F7F4F89E493E0CCDF46
:103D700089819A81009709F010D389819A81892BD2
:103D800089F7BE016F5F7F4F8DE493E0BDDF8981CE
:103D90009A81009709F001D389819A81892B89F74B
:103DA00078940F900F90DF91CF910895CF93DF9388
:103DB00000D0CDB7DEB71A821982F894BE016F5FCA
:103DC0007F4F85E493E0A0DF89819A81009709F015
:103DD000E4D289819A81892B89F778940F900F908A
:103DE000DF91CF91089581E0089590E080E00895FB
:103DF000EF92FF920F931F93CF93DF9300D0CDB735
:103E0000DEB71A8219828091440307EF1FEF8823DF
:103E1000A1F1F894BE016F5F7F4F8DE493E074DFF2
:103E2000789489819A81EE24E394F12C892B51F4C2
:103E3000F894BE016F5F7F4F89E493E065DF78946B
:103E4000F12CE12C89819A810EEF1FEF0097A9F0E8
:103E5000FC014281538164E070E06AD68C01892BB9
:103E600061F0F89469817A81C701880F991F880FE2
:103E7000991F875B9C4F5BDF7894C8010F900F9070
:103E8000DF91CF911F910F91FF90EF9008950F93C5
:103E90001F93CF93DF9300D000D0CDB7DEB71C8245
:103EA0001B821A8219828091440307EF1FEF882337
:103EB000C1F0AE014D5F5F4F64E070E0CE0101964E
:103EC000AAD68C01892B69F4E981FA818B819C81C6
:103ED00093838283F89469817A8185E493E005DF96
:103EE0007894C8010F900F900F900F90DF91CF91B1
:103EF0001F910F910895AFD7049608958F929F92C6
:103F0000AF92BF92CF92DF92EF92FF920F931F93E7
:103F1000CF93DF9300D0CDB7DEB71A821982BC01F0
:103F20006F5F7F4F6330710598F0AA24AA94BA2C72
:103F3000C5010F900F90DF91CF911F910F91FF90CE
:103F4000EF90DF90CF90BF90AF909F908F900895AB
:103F50004115510551F3480159018A016C01CBDF2C
:103F60008815990511F7E114F104F9F28E0D9F1DE2
:103F7000A816B906D0F2809144038823F1F0F89492
:103F8000B501645071099701AE014F5F5F4FC801E1
:103F90000496D6D65C01892B71F489819A81F80147
:103FA00093838283C601880F991F880F991FB801D8
:103FB000875B9C4F9ADE7894BBCF87EFA82EBB24FB
:103FC000BA94B6CFAF92BF92CF92DF92EF92FF92A8
:103FD0000F931F93CF93DF9300D0CDB7DEB71A8234
:103FE0001982892B09F047C06115710509F443C096
:103FF0004115510509F43FC02115310509F43BC0B5
:1040000001151105C1F1809144038823B9F17901AB
:104010006A015B01F894BE016F5F7F4F85E493E016
:1040200073DE789489819A81009759F1DC011296A8
:104030006D917C91A80104969CD68C01E981FA814E
:10404000D501ED93FC93828193810496F6019183CF
:10405000808351DFD7018D939C93C8010F900F90FF
:10406000DF91CF911F910F91FF90EF90DF90CF9054
:10407000BF90AF9008950FEF1FEFEFCF07EF1FEF47
:10408000ECCF0EEF1FEFE9CFCF93DF93EC01672B5F
:1040900071F4EAD68C179D0760F0DDD62496C80F20
:1040A000D91FDCD68C0F9D1FDF91CF910895D9D6F3
:1040B000F1CF90E080E0F8CF0F931F93CF93DF9381
:1040C0002091440321112BC08B01EC0189E493E082
:1040D00006DE8DE493E003DE85E493E000DE97D016
:1040E0000097C1F4C1D670E060E0CEDF4FEB51E045
:1040F00062E070E07ED1009769F48091BF019091F9
:10410000C001C4D6B801CE01F9D4009719F421E05A
:1041100020934403DF91CF911F910F91089584EF75
:104120009FEFF8CF9EC6A0C6CF93DF93A0D6EC0139
:10413000892B11F40FDE3ADECE01DF91CF91089585
:10414000CF93DF9394D6EC01892B09F403DECE01E3
:10415000DF91CF9108958091BF019091C0010895A2
:10416000CF93DF9380914403D0E0C0E08823D1F067
:1041700092D6EC01892BB1F4EDDD18DE8091BF0100
:104180009091C001E4D1E5D2EC01892B59F489E486
:1041900093E0DADD8DE493E0D7DD85E493E0D4DDD0
:1041A00010924403CE01DF91CF910895EF92FF92D8
:1041B0000F931F93CF93DF93EC017A018B010F5F75
:1041C0001F4F0E9DA0010F9D500D1E9D500D1124DF
:1041D00070E060E00E94DA2E90E080E0F0E0E0E045
:1041E0002FEFE816F90639F4DF91CF911F910F9167
:1041F000FF90EF9008951A8219822883309711F06A
:10420000D283C1830196FE01C00FD11FEACFCF92A6
:10421000DF92EF92FF920F931F93CF93DF9309E406
:1042200014E00C7F43E050E061EC71E087EC91E03A
:1042300012D481ECE82E81E0F82E97ECC92E91E0A3
:10424000D92EC8ECD4E0D7014D915D917D01F601E6
:10425000619171916F01198308835D834C835B8346
:104260004A837F836E839B012F5F3F4F249FC00152
:10427000259F900D349F900D1124998788870115F3
:10428000110511F0C80192DF88859985080F191F63
:104290002A96F7ECEF16F1E0FF06A9F6E3E5F3E066
:1042A00083EFDF011D928A95E9F710925203109275
:1042B00051031092E7041092E6041092EB0410925E
:1042C000EA041092E9041092E8041092ED041092AE
:1042D000EC041092EF041092EE041092F10410928C
:1042E000F0041092F5041092F4041092F30410926A
:1042F000F2041092F7041092F6041092F90410924E
:10430000F8041092C5041092C4041092C7041092CD
:10431000C60490E080E0DF91CF911F910F91FF9054
:10432000EF90DF90CF9008950097F1F0F894A7EC0C
:10433000B1E0E8ECF4E030E020E04D915D91481709
:104340005907A8F0428153814115510581F08AE057
:10435000829FF001839FF00D1124E853FB4F808171
:104360009181009759F4789490E080E008952F5F50
:104370003F4F3A962330310501F7F5CFDC01119616
:104380006D917C91718360834150510953834283C5
:10439000FC012193CF0178940895009749F1DC0145
:1043A0008E91853041F4E091C604F091C7043097B6
:1043B000F9F0CD0109948530D8F4282F30E0F89435
:1043C0008FEF8C938AE0829FF001839FF00D112480
:1043D000E853FB4F8081918112969C938E931197A5
:1043E000B183A083828193810196938382837894A1
:1043F0000895CF92DF92EF92FF920F931F93CF9386
:10440000DF939C0186E593E08C7F4115510509F40B
:104410009BC02115310509F497C06115710509F498
:1044200093C07A01AB01B9016D5F7F4F6C7F9B0137
:104430002F5F3F4F249F8001259F100D349F100D4B
:104440001124F8942091E6043091E704232B59F4C9
:104450002091EE043091EF042115310569F1201708
:10446000310708F058C02091F0043091F104232B5B
:1044700091F42091EE043091EF04820F931F20916C
:10448000F8043091F9042115310509F441C02017D1
:10449000310708F056C07894CFEFDFEF86EF9FEF3B
:1044A000F701D183C083DF91CF911F910F91FF90CE
:1044B000EF90DF90CF900895C3E0D0E0C09051031B
:1044C000D090520320EF30E02C193D09201731071E
:1044D00010F32AE02C9FF0012D9FF00D1124E853DA
:1044E000FB4F918380835583448353834283778337
:1044F000668311870087009709F058DE0C0D1D1D9B
:104500001093520300935103789490E080E0C8CF59
:10451000C4E0D0E0D3CFC3E0D0E02AE02C9FF0018C
:104520002D9FF00D1124E853FB4F91838083558319
:1045300044835383428377836683009729F336DE6F
:10454000E3CFC4E0D0E0E9CF8FEF9FEFACCF9C0189
:104550000397029708F069C0F89484E09AE0482F26
:1045600050E0241735070CF44DC091E08AE0829F9B
:10457000F001839FF00D1124E853FB4F118210824C
:104580001582148213821282178216829923B1F146
:104590008091E6049091E704892BA9F42091EE0420
:1045A0003091EF042115310571F080915103909104
:1045B0005203821B930B90935203809351031092EA
:1045C000EF041092EE048091F0049091F104892B95
:1045D000A9F42091F8043091F9042115310571F006
:1045E0008091510390915203821B930B909352033D
:1045F000809351031092F9041092F804789490E09B
:1046000080E00895949FF001959FF00D1124E853E8
:10461000FB4F40815181452B31F440855185452B1D
:1046200011F481509CCF90E0A1CF8FEF9FEF0895C0
:104630004115510549F1009739F16115710521F1D5
:10464000F8942091C4043091C504232BB9F420912F
:10465000C6043091C704232B89F49093C50480933A
:10466000C4047093C7046093C604789425E030E0D6
:1046700090E080E0FA0131832083089578942FEF51
:104680003FEF86EF9FEFF6CF8FEF9FEF08950597EF
:1046900069F4F8941092C5041092C4041092C704EF
:1046A0001092C604789490E080E008958FEF9FEF19
:1046B00008956115710519F4F0E0E0E011C085304E
:1046C000910581F4E091C404F091C5043097A1F301
:1046D000CB0101960995009779F3FC0185E0819360
:1046E000CF0108959C01235031092230310520F774
:1046F0002AE0289FD001299FB00D1124A853BB4F59
:104700002D913C911197232BB9F216962D913C9146
:1047100017972617370780F2F89412962D913C913F
:1047200013972115310529F0ED91FC9111973097E0
:1047300011F47894C1CF4181528111965C934E93CC
:104740002150310913963C932E93129781937894BC
:10475000C7CFE6E4F4E08EE7DF011D928A95E9F722
:10476000E3E5F3E083EFDF011D928A95E9F710920C
:10477000520310925103E8ECF4E082E3DF011D9252
:104780008A95E9F7E4ECF4E084E0DF011D928A9574
:10479000E9F790E080E00895CF93DF93C091CD01D9
:1047A000D091CE01CF3FDC0759F407D49093CE01CE
:1047B0008093CD0197FF09C0D093CE01C093CD0166
:1047C00084EF9FEFDF91CF91089590E080E0FACFE2
:1047D0008230910528F48093FA0490E080E00895F7
:1047E0008FEF9FEF08954F925F926F927F92AF92FB
:1047F000BF92CF92DF92EF92FF920F931F93CF93CE
:10480000DF9300D0CDB7DEB71A821982009709F482
:1048100078C06115710509F474C02091CD01309103
:10482000CE0107EF1FEF2F3F3F4F09F444C06B014C
:104830005C01412C512C3201F12CE12C10E000E004
:104840009E012F5F3F4FA6014E195F09B5016E0D06
:104850007F1D8091CD019091CE010ED4892B09F05E
:104860004AC089819A81009741F4E114F10429F446
:104870002091FA04222309F441C0E80EF91EEC1439
:10488000FD04C8F480E8481684E858068EE16806FE
:10489000710418F560E070E0CB013BD72AE0420ECE
:1048A000511C611C711C0A3F4FEF140721F0043F9B
:1048B0008FEF1807A1F4C8010F900F90DF91CF91EF
:1048C0001F910F91FF90EF90DF90CF90BF90AF902E
:1048D0007F906F905F904F90089501EF1FEF81E000
:1048E00090E0013F2FEF120711F090E080E0892B5C
:1048F00009F4A6CFE0CF04EF1FEFDDCF0AEF1FEFE3
:10490000DACF0FEF1FEFD7CF4F925F926F927F9268
:10491000AF92BF92CF92DF92EF92FF920F931F93CD
:10492000CF93DF9300D0CDB7DEB71A8219820097FC
:1049300009F478C06115710509F474C02091CD01A6
:104940003091CE0107EF1FEF2F3F3F4F09F444C0D6
:104950006B015C01412C512C3201F12CE12C10E057
:1049600000E09E012F5F3F4FA6014E195F09B50180
:104970006E0D7F1D8091CD019091CE0133D3892B97
:1049800009F04AC089819A81009741F4E114F10449
:1049900029F42091FA04222309F441C0E80EF91EFB
:1049A000EC14FD04C8F480E8481686E9580688E946
:1049B0006806710418F560E070E0CB01AAD62AE021
:1049C000420E511C611C711C0E3F4FEF140721F069
:1049D000043F8FEF1807A1F4C8010F900F90DF91EB
:1049E000CF911F910F91FF90EF90DF90CF90BF90EC
:1049F000AF907F906F905F904F90089502EF1FEF00
:104A000081E090E0023F2FEF120711F090E080E08C
:104A1000892B09F4A6CFE0CF04EF1FEFDDCF0EEF17
:104A20001FEFDACF0FEF1FEFD7CF8091CD0190911D
:104A3000CE018F3F980749F0B8D2892B49F48FEF08
:104A40009FEF9093CE018093CD0190E080E0089598
:104A500084EF9FEF0895CF92DF92EF92FF920F9332
:104A60001F93CF93DF9321E04115510509F020E01A
:104A70004150510921112CC0DC01FB01D12CC12C6A
:104A800021E022C03FEFC31AD30A7D010D911D9191
:104A9000E701EA80FB80E016F106A8F4208131816D
:104AA000E280F380F182E08233832283ED90FC90F8
:104AB00011979D0122503109E901F982E88211968E
:104AC0001C930E9320E03296C416D506D8F2D2CFAE
:104AD000DF91CF911F910F91FF90EF90DF90CF90DA
:104AE0000895FC01680F791F90E080E0E617F70752
:104AF00009F408952191820F911DF8CF2091FB04B4
:104B0000211113C049DE009791F410920105109213
:104B100000051092FF041092FE041092FD04109202
:104B2000FC0421E02093FB04089584EF9FEF089597
:104B3000AF92BF92CF92DF92EF92FF920F931F93AB
:104B4000CF93DF93009709F460C04630510508F415
:104B50005CC02091FB04C7EFDFEF222309F449C0BA
:104B60008C01060F171FF801C080D180C114D10439
:104B700009F44EC096012A5F3F4F4217530708F4CD
:104B800047C07C0180910005909101059383828349
:104B9000B6016C5F7F4F5801A60EB71EC801A1DF9A
:104BA000F5019183808364E070E0C8011CDEEC01B4
:104BB000892BF9F481E090E00BDEB601C801049680
:104BC00012DEEC01892B91F462E070E0C5010BDE8E
:104BD000EC01892B59F4C701E0DB8091000590912D
:104BE00001050196909301058093000590E080E017
:104BF000EFDDCE01DF91CF911F910F91FF90EF90EC
:104C0000DF90CF90BF90AF900895CFEFDFEFF1CF5F
:104C1000C9EFDFEFEECF6F927F928F929F92AF92AC
:104C2000BF92CF92DF92EF92FF920F931F93CF9399
:104C3000DF9300D000D0CDB7DEB7009709F47AC07B
:104C40004115510509F476C02091FB0407EF1FEFD1
:104C5000222309F44DC03A017B015C0164E070E05D
:104C6000CE01019651DE8C01892B09F041C00981EA
:104C70001A810115110509F45AC0480186E0880E11
:104C8000911CB701680D791D8091CF019091D001E1
:104C900010DD6C01009709F450C0A70170E060E0DE
:104CA0000E94DA2E89819A81AB81BC81EC0CFD1CBB
:104CB000F70181939193A193B1937F0181E090E0FB
:104CC00087DDB801C70120DE892B31F562E070E095
:104CD000C701800F911F18DE8C01892BE9F490E049
:104CE00080E076DDF501D182C082F301918280827D
:104CF000C8010F900F900F900F90DF91CF911F91EF
:104D00000F91FF90EF90DF90CF90BF90AF909F906A
:104D10008F907F906F90089590E080E059DDF501CD
:104D200011821082F30111821082C60136DB09EF75
:104D30001FEFDECF0FEF1FEFDBCF06EF1FEFD8CF58
:104D40000097A1F04115510589F02115310571F049
:104D5000F90136966E177F0748F0DC012D933C93DE
:104D6000DA01ED93FC9390E080E008958FEF9FEFE0
:104D70000895AF92BF92CF92DF92EF92FF920F937E
:104D80001F93CF93DF93009709F45FC0411551053E
:104D900009F45BC06530710508F457C02091FB042D
:104DA000C7EFDFEF222391F1DC01CD90DC9011976A
:104DB0001296ED91FC9196012A5F3F4FC9EFDFEF0C
:104DC0002617370719F5C091FC04D091FD042097F0
:104DD00049F521E030E03093FD042093FC047A0192
:104DE0008C01F093FF04E093FE045601B4E0AB0E97
:104DF000B11CB50176DE0A0D1B1DF8012081318141
:104E00008217930729F5D701CD92DC92CE01DF916D
:104E1000CF911F910F91FF90EF90DF90CF90BF90B7
:104E2000AF9008952091FE043091FF042F5F3F4F13
:104E3000CCEFDFEFE217F30790F2CBEFDFEF2E17A7
:104E40003F0768F2D0E0C0E0CACFCFEFDFEFDECFA0
:104E5000C3EFDFEFDBCF84E090E0089582E090E0E5
:104E600008958CEF9FEF089580E290E008951092EE
:104E70000105109200051092FF041092FE0410929A
:104E8000FD041092FC0490E080E008959093D0011E
:104E90008093CF0108958091FB04882391F0C5DDB4
:104EA000009789F410920105109200051092FF04FA
:104EB0001092FE041092FD041092FC041092FB0468
:104EC000089590E080E00895009749F0611571051C
:104ED00031F0FC0111821082FB01118210820895D1
:104EE000F3CF26E030E040E855E260E070E090E08B
:104EF00080E000C0892B19F48FE095E0FFC508958C
:104F00001F920F920FB60F9211242F933F934F933E
:104F10005F936F937F938F939F93AF93BF93EF9321
:104F2000FF9386E09FEF9093850080938400B7D035
:104F3000FF91EF91BF91AF919F918F917F916F9171
:104F40005F914F913F912F910F900FBE0F901F9047
:104F5000189586E09FEF9093850080938400AFE6DC
:104F6000B0E08C918E7F8C93E0E8F0E080818C7FC4
:104F70008083E1E8F0E08081877E808380818360A8
:104F8000808380818B7F80838C9181608C93089556
:104F9000EFE6F0E0808190819E7F9083817008959C
:104FA00081E0089510920205089568EE73E080E0B4
:104FB00090E0AFD390E080E0089526E030E040E05C
:104FC00052EC61E070E090E080E094DF8FE095E0EB
:104FD000CBD4892B21F08FE095E0E0D4F7CF90E09F
:104FE00080E00895CF92DF92EF92FF920F931F938C
:104FF000CF93DF936B017A01E901198218828FE068
:1050000095E0B2D4892B69F18601CC24C39482E067
:10501000D82E80910205811110C08FE095E0BED49A
:105020000297B9F7C0920205F801D1928F018881E9
:105030009981019699838883ECCF888199818E1517
:105040009F0578F48FE095E0A9D48F3F9807A9F3E6
:10505000F80181938F0188819981019699838883D2
:10506000ECCF90E080E0DF91CF911F910F91FF9006
:10507000EF90DF90CF9008950F931F93CF93DF931E
:10508000EA0189018FE095E01DD6F801D183C08344
:1050900090E080E0DF91CF911F910F910895CF9222
:1050A000DF92EF92FF928091030591E0980F909329
:1050B0000305882369F021E030E030930505209353
:1050C000040580930305FF90EF90DF90CF90089543
:1050D0007894E091D201F091D301C28CD38CE48C0E
:1050E000F58C0E948102B701A60190E080E00E9449
:1050F000A101F894809103058150E3CF0F931F9392
:10510000CF93DF93109228061092270638D3E9DE5A
:10511000C091D201D091D301198218826FEF7FEF35
:10512000CB010E94270270E060E090E080E00E94E6
:10513000A200009709F03AC00E94F107F894789411
:10514000BE016E5D7F4F8A819B810E94A500892BE5
:1051500059F46FEF7FEFCB010E9436010E942102CC
:10516000882311F081E08EA3F894F3DE0E942402DC
:10517000882311F080E008C00E9421028111FACF3B
:1051800081E09EA19111F6CF8093270678940E942A
:105190009C0F8C0178948091270681110CC00E948D
:1051A0005A090E940502F89490E080E0DF91CF91C7
:1051B0001F910F9108950E9402020E9424028823E9
:1051C000D9F081E0809328069091280681E0911122
:1051D00080E080932706809128068111D9DE013076
:1051E000110529F40E949C0F892B09F4DBDE0E9433
:1051F0009C0F8C01D5DECFCF0E9421028111E1CF1F
:1052000081E09EA19111DECF80E0DCCF5058BB271A
:10521000AA270ED057C148D130F04DD120F031F43B
:105220009F3F11F41EF43DC10EF4E095E7FB0AC167
:10523000E92F59D180F3BA176207730784079507DE
:1052400018F071F49EF588C10EF4E0950B2EBA2F7C
:10525000A02D0B01B90190010C01CA01A00111247C
:10526000FF27591B99F0593F50F4503E68F11A1628
:10527000F040A22F232F342F4427585FF3CF4695B9
:1052800037952795A795F0405395C9F77EF41F16DB
:10529000BA0B620B730B840BBAF09150A1F0FF0FA5
:1052A000BB1F661F771F881FC2F70EC0BA0F621F91
:1052B000731F841F48F4879577956795B795F79581
:1052C0009E3F08F0B3CF9395880F08F09927EE0F13
:1052D00097958795089529D180F09F3740F49111D3
:1052E0000EF43BC160E070E080E89FE3089526F093
:1052F0001B16611D711D811DABC0C5C07FD008F498
:1053000081E00895F8D088F09F5790F0B92F992741
:10531000B751A0F0D1F0660F771F881F991F1AF0C0
:10532000BA95C9F712C0B13081F016D1B1E0089535
:1053300013C1672F782F8827B85F39F0B93FCCF3B6
:10534000869577956795B395D9F73EF490958095B6
:10535000709561957F4F8F4F9F4F0895E89409C0D6
:1053600097FB3EF490958095709561957F4F8F4F98
:105370009F4F9923A9F0F92F96E9BB279395F695AE
:10538000879577956795B795F111F8CFFAF4BB0F2C
:1053900011F460FF1BC06F5F7F4F8F4F9F4F16C090
:1053A000882311F096E911C0772321F09EE8872F1A
:1053B000762F05C0662371F096E8862F70E060E0D6
:1053C0002AF09A95660F771F881FDAF7880F96954F
:1053D000879597F90895A9D080F09F3740F49111EF
:1053E0000EF0BBC060E070E080E89FEB089526F40B
:1053F0001B16611D711D811D2BC045C0990F000832
:10540000550FAA0BE0E8FEEF16161706E807F90796
:10541000C0F012161306E407F50798F0621B730B31
:10542000840B950B39F40A2661F0232B242B252BB2
:1054300021F408950A2609F4A140A6958FEF811D55
:10544000811D089597F99F6780E870E060E00895F6
:10545000882371F4772321F09850872B762F07C08B
:10546000662311F499270DC09051862B70E060E0FF
:105470002AF09A95660F771F881FDAF7880F96959E
:10548000879597F908959F3F31F0915020F48795C3
:1054900077956795B795880F911D9695879597F99C
:1054A00008959FEF80EC089500240A9416161706BD
:1054B00018060906089500240A9412161306140605
:1054C00005060895092E0394000C11F4882352F068
:1054D000BB0F40F4BF2B11F460FF04C06F5F7F4F20
:1054E0008F4F9F4F089557FD9058440F551F59F007
:1054F0005F3F71F04795880F97FB991F61F09F3FC1
:1055000079F087950895121613061406551FF2CFE9
:105510004695F1DF08C0161617061806991FF1CF39
:1055200086957105610508940895E5DFA0F0BEE752
:10553000B91788F4BB279F3860F41616B11D672F82
:10554000782F8827985FF7CF869577956795B11D57
:1055500093959639C8F30895E894BB276627772773
:10556000CB0197F908954ADF08F48FEF08950BD027
:10557000A9CF9ADF28F09FDF18F0952309F062CFBA
:1055800090CF1124EACFAFDFA0F3959FD1F3950F11
:1055900050E0551F629FF001729FBB27F00DB11DB7
:1055A000639FAA27F00DB11DAA1F649F6627B00D47
:1055B000A11D661F829F2227B00DA11D621F739F30
:1055C000B00DA11D621F839FA00D611D221F749F3E
:1055D0003327A00D611D231F849F600D211D822F85
:1055E000762F6A2F11249F5750408AF0E1F08823CC
:1055F0004AF0EE0FFF1FBB1F661F771F881F9150D9
:105600005040A9F79E3F510570F01CCFA6CF5F3FD9
:10561000ECF3983EDCF3869577956795B795F7950B
:10562000E7959F5FC1F7FE2B880F911D9695879593
:1056300097F908951F920F920FB60F9211242F938E
:105640003F938F939F93AF93BF9380910705909162
:105650000805A0910905B0910A053091060523E0DF
:10566000230F2D3758F50196A11DB11D2093060576
:105670008093070590930805A0930905B0930A0548
:1056800080910B0590910C05A0910D05B0910E0530
:105690000196A11DB11D80930B0590930C05A0935D
:1056A0000D05B0930E05BF91AF919F918F913F91E2
:1056B0002F910F900FBE0F901F90189526E8230F83
:1056C0000296A11DB11DD2CF3FB7F89480910B0572
:1056D00090910C05A0910D05B0910E0526B5A89BE3
:1056E00005C02F3F19F00196A11DB11D3FBFBA2F74
:1056F000A92F982F8827BC01CD01620F711D811D34
:10570000911D42E0660F771F881F991F4A95D1F7B8
:1057100008958F929F92AF92BF92CF92DF92EF92B5
:10572000FF926B017C01D0DF4B015C01C114D104FD
:10573000E104F104D9F0F3D2C7DF681979098A09C5
:105740009B09683E73408105910580F321E0C21AF0
:10575000D108E108F10888EE880E83E0981EA11CAC
:10576000B11CC114D104E104F10431F7FF90EF90B2
:10577000DF90CF90BF90AF909F908F9008957894D6
:1057800084B5826084BD84B5816084BD85B5826046
:1057900085BD85B5816085BDEEE6F0E080818160E4
:1057A0008083E1E8F0E010828081826080838081E4
:1057B00081608083E0E8F0E0808181608083E1EBBC
:1057C000F0E0808184608083E0EBF0E080818160A4
:1057D0008083EAE7F0E0808184608083808182605A
:1057E0008083808181608083808180688083109243
:1057F000C1000895833081F028F4813099F082301F
:10580000A9F008958730A9F08830C9F08430B1F448
:10581000809180008F7D03C0809180008F7780937E
:105820008000089584B58F7784BD089584B58F7DF9
:10583000FBCF8091B0008F778093B0000895809166
:10584000B0008F7DF9CFCF93DF9390E0FC01E45857
:10585000FF4F249180579F4FFC0184918823C9F00A
:1058600090E0880F991FFC01E854FF4FA591B49177
:10587000FC01E255FF4FC591D49161110DC09FB756
:10588000F8948C91209582238C93888128232883F7
:105890009FBFDF91CF910895623051F49FB7F89484
:1058A0003C91822F809583238C93E8812E2BEFCF20
:1058B0008FB7F894EC912E2B2C938FBFEACF1F93C8
:1058C000CF93DF93282F30E0F901E859FF4F8491FF
:1058D000F901E458FF4FD491F901E057FF4FC4910B
:1058E000CC23A1F0162F811185DFEC2FF0E0EE0F15
:1058F000FF1FE255FF4FA591B4918FB7F894EC913B
:10590000111108C0D095DE23DC938FBFDF91CF91BA
:105910001F910895DE2BF8CFCF93DF93282F30E02F
:10592000F901E859FF4F8491F901E458FF4FD491F0
:10593000F901E057FF4FC491CC2399F081115ADF50
:10594000EC2FF0E0EE0FFF1FEC55FF4FA591B49147
:10595000EC91ED2381E090E009F480E0DF91CF91BC
:10596000089580E090E0FACFFC01918D228D892F7F
:1059700090E0805C9F4F821B91098F739927089557
:10598000FC01918D828D981731F0828DE80FF11D09
:10599000858D90E008958FEF9FEF0895FC01918D24
:1059A000828D981761F0A28DAE0FBF2FB11D5D964D
:1059B0008C91928D9F5F9F73928F90E008958FEFEF
:1059C0009FEF0895FC01538D448D252F30E0842FE7
:1059D00090E0821B930B541710F0CF960895019717
:1059E0000895FC01A48DA80FB92FB11DA35ABF4F74
:1059F0002C91848D90E001968F739927848FA689CE
:105A0000B7892C93A089B1898C91837080648C9321
:105A1000938D848D981306C00288F389E02D8081D0
:105A20008F7D80830895CF93DF93EC01888D882349
:105A3000B1F0AA89BB89E889F9898C9185FD03C0F9
:105A4000808186FD0CC00FB607FCF7CF8C9185FFD7
:105A5000F2CF808185FFEDCFCE01C3DFEACFDF91AA
:105A6000CF910895EF92FF920F931F93CF93DF93FF
:105A7000EC0181E0888F9B8D8C8D98131AC0E8898A
:105A8000F989808185FF15C09FB7F894EE89FF8959
:105A90006083E889F98980818370806480839FBFF7
:105AA00081E090E0DF91CF911F910F91FF90EF90F7
:105AB0000895F62E0B8D10E00F5F1F4F0F73112707
:105AC000E02E8C8D8E110BC00FB607FCFACFE88943
:105AD000F989808185FFF5CFCE0183DFF2CFEB8D91
