:1000000061C0000086C0000084C0000082C0000003
:1000100080C000007EC000007CC000007AC00000EC
:1000200078C0000076C0000074C0000072C00000FC
:1000300070C0000057C300006CC000006AC0000020
:10004000FBC5000066C000000C9485080C94B7083E
:1000500060C000005EC000005CC000005AC000002C
:1000600058C0000056C00000000000080002010057
:100070000003040700000000000000000102040863
:100080001020408001020408102001020408102002
:10009000040404040404040402020202020203032E
:1000A00003030303000000002300260029000000D2
:1000B0000000250028002B0000000000240027007D
:1000C0002A00DC0811241FBECFEFD8E0DEBFCDBF71
:1000D00011E0A0E0B1E0E0ECF2E102C005900D9289
:1000E000A836B107D9F722E0A8E6B1E001C01D9219
:1000F000A036B207E1F710E0C2E6D0E004C02197D5
:10010000FE010E945809C136D107C9F787D30C9464
:100110005E0976CF611101C03DC66130E9F362E04E
:10012000FBCF662311F061E071C660E0FDCF9BD686
:1001300021E0019709F020E0822F0895FC0191E071
:1001400080916B01811190E0918308950F931F932B
:10015000CF93DF93EA019C81882341F191110BC079
:10016000F90180859185A285B38588839983AA83C7
:10017000BB8381E08C83D9018B01288139814A813D
:100180005B8114966D917D918D919C9117977ED393
:10019000F8016083718382839383688379838A8380
:1001A0009B83DF91CF911F910F9108959923C9F3FC
:1001B0001C82F7CFCF92DF92EF92FF926B017C010E
:1001C0009F7720E030E040E859E5D7D387FF26C08D
:1001D00020E030E040E05FE3C701B601C6D487FD10
:1001E0000CC020E030E040E05FE3C701B6014ED331
:1001F000FF90EF90DF90CF90F0C320E030E040E040
:100200005FEBC701B601B1D418167CF420E030E0F2
:10021000A901C701B601ADD46B017C01C701B601CC
:10022000FF90EF90DF90CF90089520E030E040E025
:100230005FE3C701B60129D3FF90EF90DF90CF9025
:1002400089C380916B018F5F843618F480936B01B2
:10025000089510926B010895CF92DF92EF92FF9272
:10026000C0900001D0900101E0900201F0900301E4
:10027000A701960160912C0270912D0280912E02AF
:1002800090912F027AD3882341F0C0922C02D09211
:100290002D02E0922E02F0922F0288E048DF28E43F
:1002A00031E045E452E06AE572E050DFC0905A0266
:1002B000D0905B02E0905C02F0905D0220E030E0C4
:1002C00040E251E4C701B60158D38111CDC08091FD
:1002D000380190913901A0913A01B0913B0180938E
:1002E0004A0290934B02A0934C02B0934D02C090EF
:1002F0000401D0900501E0900601F0900701A701EC
:1003000096016091200270912102809122029091C9
:10031000230233D3882341F0C0922002D0922102DD
:10032000E0922202F092230282E001DF2CE331E02E
:1003300040E452E066E572E009DFC0905602D090DA
:100340005702E0905802F090590220E030E040E27D
:1003500051E4C701B60111D3811198C08091080101
:1003600090910901A0910A01B0910B0180934A027A
:1003700090934B02A0934C02B0934D02C0904A025E
:10038000D0904B02E0904C02F0904D0220E030E023
:10039000A901C701B601F1D281118AC08091100173
:1003A00090911101A0911201B091130180934E021E
:1003B00090934F02A0935002B09351028091140188
:1003C00090911501A0911601B091170180935202EE
:1003D00090935302A0935402B093550260914E0241
:1003E00070914F028091500290915102E3DE6B01B7
:1003F0007C0120E030E040E853E4BFD26FEF87FF9C
:100400000CC020E030E0A901C701B601AED360E026
:1004100087FD03C0C701B601B4D289E082DE6091D6
:100420005202709153028091540290915502C2DEA3
:100430006B017C0120E030E040E853E49ED26FEF96
:1004400087FF0CC020E030E0A901C701B6018DD3C1
:1004500060E087FD03C0C701B60193D284E0FF903E
:10046000EF90DF90CF905DCE20E030E040EA51E4A5
:10047000C701B60182D281113ACF809134019091A7
:100480003501A0913601B091370129CF20E030E04D
:1004900040EA51E4C701B60170D281116FCF80915B
:1004A0000C0190910D01A0910E01B0910F015ECF52
:1004B00020E030E040E85FE3C701B6015ED2811181
:1004C00019C08091180190911901A0911A01B09161
:1004D0001B0180934E0290934F02A0935002B09361
:1004E000510280911C0190911D01A0911E01B091BB
:1004F0001F016CCF20E030E040E450E4C701B601BA
:100500003CD281116BCF8091200190912101A0916B
:100510002201B09123018093520290935302A09341
:100520005402B09355028091240190912501A0912D
:100530002601B091270180934E0290934F02A09321
:100540005002B09351024ACF8F929F92AF92BF92C6
:10055000FF920F931F93CF93DF93C8E1D2E000E0A7
:1005600011E08091500190915101A0915201B09100
:1005700053018DA79EA7AFA7B8ABEAE4F2E0809144
:10058000480190914901A0914A01B0914B01808BA3
:10059000918BA28BB38B8091440190914501A091E6
:1005A0004601B091470188A799A7AAA7BBA7D80180
:1005B000DC964D915D916D917C91DF9744875587D5
:1005C000668777879C964D915D916D917C919F9701
:1005D0004483558366837783D0964D915D916D9169
:1005E0007C91D397408751876287738798964D9106
:1005F0005D916D917C919B9740835183628373835E
:100600001C868D919D910D90BC91A02D8C8B9D8B06
:10061000AE8BBF8B812C912C540183948D869E864A
:10062000AF86B88A60E088E075DDFF24F394F98A2C
:100630001882F80184819581A681B781888799877E
:10064000AA87BB8789829A82AB82BC8260E082E003
:1006500061DDFD8218A289A29AA2ABA2BCA261E0D0
:1006600089E058DDFDA2188E898E9A8EAB8EBC8EE5
:1006700061E084E04FDDFD8EDF91CF911F910F91FE
:10068000FF90BF90AF909F908F900895809124022B
:10069000811103C081E080932402809118028111AE
:1006A00003C081E08093180280913802811103C059
:1006B00081E08093380280913002811103C081E093
:1006C00080933002089526E030E040E855E260E093
:1006D00070E090E080E000C0892B19F48BE791E096
:1006E000B4C408951F920F920FB60F9211242F9346
:1006F0003F934F935F936F937F938F939F93AF93AA
:10070000BF93EF93FF9386E09FEF909385008093D4
:10071000840032D0FF91EF91BF91AF919F918F9163
:100720007F916F915F914F913F912F910F900FBEED
:100730000F901F90189586E09FEF9093850080930F
:100740008400AFE6B0E08C918E7F8C93E0E8F0E01F
:1007500080818C7F8083E1E8F0E08081877E8083E8
:1007600080818360808380818B7F80838C91816096
:100770008C93089581E00895CF93DF9300D0CDB797
:10078000DEB780916E0191E0980F90936E018823FF
:1007900069F021E030E03093710120937001809383
:1007A0006E010F900F90DF91CF910895CE010196C9
:1007B000C5DC789446DDF89480916E018150809379
:1007C0006E018A81882389F080916D0191E0980FF4
:1007D00090936D01882349F021E030E0309371015E
:1007E0002093700180936D01DCCF80916D0188238F
:1007F000C1F280916F018111D4CF81E080936F01AC
:1008000078942ADDF89480916D01815080936D0178
:1008100080916F01815080936F01C3CFCF93DF939D
:1008200010925F0210925E0251D24DDFC0915401CE
:10083000D09155011982188287DEF8947CDF2881D7
:10084000398181E0232B09F080E080935E02789467
:10085000789480915E02811107C018DFF89490E0CF
:1008600080E0DF91CF9108952881398181E0232BA9
:1008700009F480E080935F0290915F0281E0911122
:1008800080E080935E0276DFE4CF5058BB27AA2732
:100890000ED01AC10BD130F010D120F031F49F3FAF
:1008A00011F41EF400C10EF4E095E7FBCDC0E92F72
:1008B0001CD180F3BA17620773078407950718F0F5
:1008C00071F49EF54BC10EF4E0950B2EBA2FA02DBE
:1008D0000B01B90190010C01CA01A0011124FF27ED
:1008E000591B99F0593F50F4503E68F11A16F040E8
:1008F000A22F232F342F4427585FF3CF46953795E7
:100900002795A795F0405395C9F77EF41F16BA0BAB
:10091000620B730B840BBAF09150A1F0FF0FBB1F59
:10092000661F771F881FC2F70EC0BA0F621F731FA2
:10093000841F48F4879577956795B795F7959E3FFF
:1009400008F0B3CF9395880F08F09927EE0F97958D
:1009500087950895ECD080F09F3740F491110EF404
:10096000FEC060E070E080E89FE3089526F01B166B
:10097000611D711D811D6EC088C042D008F481E0E8
:100980000895BBD088F09F5790F0B92F9927B751A1
:10099000A0F0D1F0660F771F881F991F1AF0BA9543
:1009A000C9F712C0B13081F0D9D0B1E00895D6C0F6
:1009B000672F782F8827B85F39F0B93FCCF3869539
:1009C00077956795B395D9F73EF490958095709596
:1009D00061957F4F8F4F9F4F0895A9D080F09F372B
:1009E00040F491110EF0BBC060E070E080E89FEB36
:1009F000089526F41B16611D711D811D2BC045C075
:100A0000990F0008550FAA0BE0E8FEEF161617061F
:100A1000E807F907C0F012161306E407F50798F087
:100A2000621B730B840B950B39F40A2661F0232BA0
:100A3000242B252B21F408950A2609F4A140A6951C
:100A40008FEF811D811D089597F99F6780E870E001
:100A500060E00895882371F4772321F09850872B64
:100A6000762F07C0662311F499270DC09051862B6D
:100A700070E060E02AF09A95660F771F881FDAF71A
:100A8000880F9695879597F908959F3F31F091507B
:100A900020F4879577956795B795880F911D969562
:100AA000879597F908959FEF80EC089500240A94A4
:100AB0001616170618060906089500240A94121639
:100AC0001306140605060895092E0394000C11F46C
:100AD000882352F0BB0F40F4BF2B11F460FF04C019
:100AE0006F5F7F4F8F4F9F4F089557FD9058440F72
:100AF000551F59F05F3F71F04795880F97FB991F7D
:100B000061F09F3F79F08795089512161306140639
:100B1000551FF2CF4695F1DF08C0161617061806C6
:100B2000991FF1CF86957105610508940895E5DF59
:100B3000A0F0BEE7B91788F4BB279F3860F41616FB
:100B4000B11D672F782F8827985FF7CF8695779507
:100B50006795B11D93959639C8F30895E894BB271E
:100B600066277727CB0197F908954ADF08F48FEFBE
:100B700008950BD0A9CF9ADF28F09FDF18F09523B6
:100B800009F062CF90CF1124EACFAFDFA0F3959F99
:100B9000D1F3950F50E0551F629FF001729FBB2764
:100BA000F00DB11D639FAA27F00DB11DAA1F649F10
:100BB0006627B00DA11D661F829F2227B00DA11DC3
:100BC000621F739FB00DA11D621F839FA00D611D49
:100BD000221F749F3327A00D611D231F849F600D6A
:100BE000211D822F762F6A2F11249F5750408AF0A3
:100BF000E1F088234AF0EE0FFF1FBB1F661F771F2F
:100C0000881F91505040A9F79E3F510570F01CCFAE
:100C1000A6CF5F3FECF3983EDCF38695779567951A
:100C2000B795F795E7959F5FC1F7FE2B880F911D4C
:100C30009695879597F908951F920F920FB60F9288
:100C400011242F933F938F939F93AF93BF938091E2
:100C5000730190917401A0917501B091760130916A
:100C6000720123E0230F2D3758F50196A11DB11D08
:100C7000209372018093730190937401A093750186
:100C8000B09376018091770190917801A0917901DC
:100C9000B0917A010196A11DB11D809377019093C7
:100CA0007801A0937901B0937A01BF91AF919F91A0
:100CB0008F913F912F910F900FBE0F901F9018951D
:100CC00026E8230F0296A11DB11DD2CF789484B5DA
:100CD000826084BD84B5816084BD85B5826085BD38
:100CE00085B5816085BDEEE6F0E08081816080831E
:100CF000E1E8F0E010828081826080838081816001
:100D00008083E0E8F0E0808181608083E1EBF0E0C7
:100D1000808184608083E0EBF0E08081816080836B
:100D2000EAE7F0E080818460808380818260808354
:100D30008081816080838081806880831092C1007F
:100D40000895833081F028F4813099F08230A9F041
:100D500008958730A9F08830C9F08430B1F48091CB
:100D600080008F7D03C0809180008F77809380000A
:100D7000089584B58F7784BD089584B58F7DFBCFAA
:100D80008091B0008F778093B00008958091B0007B
:100D90008F7DF9CFCF93DF9390E0FC01E458FF4FB4
:100DA000249180579F4FFC0184918823C9F090E0E3
:100DB000880F991FFC01E854FF4FA591B491FC01E5
:100DC000E255FF4FC591D49161110DC09FB7F894C2
:100DD0008C91209582238C938881282328839FBF20
:100DE000DF91CF910895623051F49FB7F8943C9110
:100DF000822F809583238C93E8812E2BEFCF8FB7A2
:100E0000F894EC912E2B2C938FBFEACF1F93CF93A6
:100E1000DF93282F30E0F901E859FF4F8491F90161
:100E2000E458FF4FD491F901E057FF4FC491CC2310
:100E3000A1F0162F811185DFEC2FF0E0EE0FFF1FE0
:100E4000E255FF4FA591B4918FB7F894EC91111131
:100E500008C0D095DE23DC938FBFDF91CF911F9127
:100E60000895DE2BF8CFCF93DF93282F30E0F901E0
:100E7000E859FF4F8491F901E458FF4FD491F901EB
:100E8000E057FF4FC491CC2399F081115ADFEC2F2A
:100E9000F0E0EE0FFF1FEC55FF4FA591B491EC91E0
:100EA000ED2381E090E009F480E0DF91CF91089597
:100EB00080E090E0FACFFC01918D228D892F90E0A7
:100EC000805C9F4F821B91098F7399270895FC01C5
:100ED000918D828D981731F0828DE80FF11D858DEF
:100EE00090E008958FEF9FEF0895FC01918D828D22
:100EF000981761F0A28DAE0FBF2FB11D5D968C913A
:100F0000928D9F5F9F73928F90E008958FEF9FEF78
:100F10000895FC01538D448D252F30E0842F90E0FF
:100F2000821B930B541710F0CF96089501970895E4
:100F3000FC01A48DA80FB92FB11DA35ABF4F2C914E
:100F4000848D90E001968F739927848FA689B78945
:100F50002C93A089B1898C91837080648C93938D3C
:100F6000848D981306C00288F389E02D80818F7DDF
:100F700080830895CF93DF93EC01888D8823B1F0AF
:100F8000AA89BB89E889F9898C9185FD03C0808194
:100F900086FD0CC00FB607FCF7CF8C9185FFF2CF12
:100FA000808185FFEDCFCE01C3DFEACFDF91CF9106
:100FB0000895EF92FF920F931F93CF93DF93EC016D
:100FC00081E0888F9B8D8C8D98131AC0E889F989F0
:100FD000808185FF15C09FB7F894EE89FF896083F3
:100FE000E889F98980818370806480839FBF81E074
:100FF00090E0DF91CF911F910F91FF90EF900895B6
:10100000F62E0B8D10E00F5F1F4F0F731127E02E90
:101010008C8D8E110BC00FB607FCFACFE889F989C9
:10102000808185FFF5CFCE0183DFF2CFEB8DEC0F12
:10103000FD2FF11DE35AFF4FF0829FB7F8940B8FFD
:10104000EA89FB8980818062D0CFCF92DF92EF92D4
:10105000FF921F93CF93DF93EC016A017B01122F64
:10106000E889F98982E08083C11481EED806E10421
:10107000F10499F060E079E08DE390E0A70196013A
:10108000F5D02150310941095109569547953795B9
:101090002795211580E1380790F0E889F9891082B9
:1010A00060E874E88EE190E0A7019601DFD021505E
:1010B0003109410951095695479537952795EC8592
:1010C000FD853083EE85FF852083188EEC89FD89B0
:1010D0001083EA89FB89808180618083EA89FB89AA
:1010E000808188608083EA89FB8980818068808331
:1010F000EA89FB8980818F7D8083DF91CF911F9169
:10110000FF90EF90DF90CF9008951F920F920FB64F
:101110000F9211242F938F939F93EF93FF93E0915E
:101120008B01F0918C018081E0919101F09192010D
:1011300082FD1BC09081809194018F5F8F732091FD
:101140009501821741F0E0919401F0E0E558FE4FDF
:10115000958F80939401FF91EF919F918F912F91A3
:101160000F900FBE0F901F9018958081F4CF1F92A3
:101170000F920FB60F9211242F933F934F935F93CB
:101180006F937F938F939F93AF93BF93EF93FF934F
:101190008BE791E0CDDEFF91EF91BF91AF919F91F1
:1011A0008F917F916F915F914F913F912F910F9010
:1011B0000FBE0F901F901895EBE7F1E0138212829B
:1011C00088EE93E0A0E0B0E084839583A683B783A4
:1011D0008AE591E09183808385EC90E09587848710
:1011E00084EC90E09787868780EC90E0918B808BF1
:1011F00081EC90E0938B828B82EC90E0958B848BDA
:1012000086EC90E0978B868B118E128E138E148E47
:101210000895AF92BF92CF92DF92EF92FF920F9319
:101220001F93CF93DF936C017B018B01040F151F7C
:10123000EB015E01AE18BF08C017D10759F06991E4
:10124000D601ED91FC910190F081E02DC601099548
:10125000892B79F7C501DF91CF911F910F91FF90F5
:10126000EF90DF90CF90BF90AF900895A1E21A2E3B
:10127000AA1BBB1BFD010DC0AA1FBB1FEE1FFF1F3A
:10128000A217B307E407F50720F0A21BB30BE40B8A
:10129000F50B661F771F881F991F1A9469F76095D1
:1012A0007095809590959B01AC01BD01CF0108958B
:1012B000EE0FFF1F0590F491E02D0994F894FFCFF5
:1012C000CDCCCC3DCDCCCC3D00004040000000005A
:1012D00000000000000000000000803F000000004F
:1012E0000000803F0000000000000000000000003F
:1012F00000000000000000000000803F000000002F
:101300000000803F00000000000000000000803F5F
:1013100000000000680100000000D90709098907E2
:08132000BA075B0775076707B8
:00000001FF
