:1000000061C0000084C0000082C0000080C0000009
:100010007EC000007CC000007AC0000078C00000F4
:1000200076C0000074C0000072C0000070C0000004
:100030006EC000000DC200006AC0000068C0000071
:10004000B8C3000064C000001DC600004DC600001B
:100050005EC000005CC000005AC0000058C0000034
:1000600056C0000054C0000000000008000201005B
:100070000003040700000000000000000102040863
:100080001020408001020408102001020408102002
:10009000040404040404040402020202020203032E
:1000A00003030303000000002300260029000000D2
:1000B0000000250028002B0000000000240027007D
:1000C0002A00990611241FBECFEFD8E0DEBFCDBFB6
:1000D00011E0A0E0B1E0EAE3FEE002C005900D927D
:1000E000A833B107D9F722E0A8E3B1E001C01D921F
:1000F000A832B207E1F710E0C2E6D0E003C02197D2
:10010000FE0193D6C136D107D1F73ED294C678CF3F
:10011000611101C0FCC36130E9F362E0FBCF6623EB
:1001200011F061E030C460E0FDCF5AD421E00197C6
:1001300009F020E0822F0895FC0191E080913B01BD
:10014000811190E0918308950F931F93CF93DF93D4
:10015000EA019C81882341F191110BC0F90180854E
:100160009185A285B38588839983AA83BB8381E027
:100170008C83D9018B01288139814A815B81149656
:100180006D917D918D919C91179736D2F801608386
:10019000718382839383688379838A839B83DF91CE
:1001A000CF911F910F9108959923C9F31C82F7CF26
:1001B00080913B018F5F843618F480933B01089552
:1001C00010923B010895CF92DF92EF92FF92C09080
:1001D0000001D0900101E0900201F0900301A7011D
:1001E00096016091FC017091FD018091FE0190915A
:1001F000FF0166D2882341F0C092FC01D092FD013C
:10020000E092FE01F092FF0188E08FDF28E131E00B
:1002100047E152E060E272E097DF20E030E040E248
:1002200051E460912002709121028091220290910C
:10023000230246D2811109C081E0909111029111EF
:1002400080E080932502809311026091250289E06D
:1002500066DFC0900401D0900501E0900601F090A7
:100260000701A70196016091F0017091F101809161
:10027000F2019091F30124D2882341F0C092F00161
:10028000D092F101E092F201F092F30182E04DDFB1
:100290002CE031E042E152E06CE172E055DF20E019
:1002A00030E040E251E460911C0270911D028091A7
:1002B0001E0290911F0204D2811109C081E0909129
:1002C0001002911180E080932402809310026091CB
:1002D000240284E0FF90EF90DF90CF9020CF8F92A8
:1002E0009F92AF92BF92FF920F931F93CF93DF9392
:1002F000C8EED1E000E011E0F80180A191A1A2A137
:10030000B3A18FA798ABA9ABBAABECE1F2E0D801EF
:1003100058964D915D916D917C915B974483558387
:10032000668377831B968C911B9789A71A968C916D
:100330001A97818754964D915D916D917C91579755
:100340004AA75BA76CA77DA71C964D915D916D9107
:100350007C911F97408351836283738319968C919C
:10036000199788A718968C91189780871C868D916D
:100370009D910D90BC91A02D8C8B9D8BAE8BBF8BD6
:10038000812C912C540183948D869E86AF86B88AE9
:1003900060E088E0BDDEFF24F394F98A18A289A208
:1003A0009AA2ABA2BCA261E089E0B2DEFDA21882F3
:1003B000F80184819581A681B78188879987AA876A
:1003C000BB8789829A82AB82BC8260E082E0A0DE39
:1003D000FD82188E898E9A8EAB8EBC8E61E084E091
:1003E00097DEFD8EDF91CF911F910F91FF90BF900F
:1003F000AF909F908F9008958091F401811103C078
:1004000081E08093F40180910802811103C081E0B2
:10041000809308028091E801811103C081E08093FC
:10042000E80180910002811103C081E08093000205
:10043000089526E030E040E855E260E070E090E0AA
:1004400080E000C0892B19F48BE491E0BBC30895D0
:100450001F920F920FB60F9211242F933F934F9339
:100460005F936F937F938F939F93AF93BF93EF931C
:10047000FF9386E09FEF909385008093840032D0B5
:10048000FF91EF91BF91AF919F918F917F916F916C
:100490005F914F913F912F910F900FBE0F901F9042
:1004A000189586E09FEF9093850080938400AFE6D7
:1004B000B0E08C918E7F8C93E0E8F0E080818C7FBF
:1004C0008083E1E8F0E08081877E808380818360A3
:1004D000808380818B7F80838C9181608C93089551
:1004E00081E00895CF93DF9300D0CDB7DEB7809140
:1004F0003E0191E0980F90933E01882369F021E03E
:1005000030E0309341012093400180933E010F90F1
:100510000F90DF91CF910895CE0101960DDE789472
:1005200047DEF89480913E01815080933E018A819C
:10053000882389F080913D0191E0980F90933D01CF
:10054000882349F021E030E03093410120934001BD
:1005500080933D01DCCF80913D018823C1F28091E1
:100560003F018111D4CF81E080933F0178942BDE4D
:10057000F89480913D01815080933D0180913F012D
:10058000815080933F01C3CFCF93DF931092270216
:100590001092260258D14DDFC0912401D09125013F
:1005A000198218829CDEF8947CDF2881398181E0F1
:1005B000232B09F080E08093260278947894809130
:1005C0002602811107C018DFF89490E080E0DF91E7
:1005D000CF9108952881398181E0232B09F480E0AF
:1005E000809327029091270281E0911180E080930F
:1005F000260276DFE4CF5058BB27AA270ED09FC033
:1006000090D030F095D020F031F49F3F11F41EF4DB
:1006100085C00EF4E095E7FB7BC0E92FA1D080F305
:10062000BA17620773078407950718F071F49EF5EF
:10063000B9C00EF4E0950B2EBA2FA02D0B01B90115
:1006400090010C01CA01A0011124FF27591B99F048
:10065000593F50F4503E68F11A16F040A22F232F54
:10066000342F4427585FF3CF469537952795A795A4
:10067000F0405395C9F77EF41F16BA0B620B730B4B
:10068000840BBAF09150A1F0FF0FBB1F661F771FBC
:10069000881FC2F70EC0BA0F621F731F841F48F471
:1006A000879577956795B795F7959E3F08F0B3CFF7
:1006B0009395880F08F09927EE0F979587950895E1
:1006C00003D008F481E00895990F0008550FAA0B94
:1006D000E0E8FEEF16161706E807F907C0F0121655
:1006E0001306E407F50798F0621B730B840B950B58
:1006F00039F40A2661F0232B242B252B21F40895AD
:100700000A2609F4A140A6958FEF811D811D089549
:1007100097F99F6780E870E060E008959FEF80ECB4
:10072000089500240A941616170618060906089557
:1007300000240A9412161306140605060895092EBD
:100740000394000C11F4882352F0BB0F40F4BF2B2C
:1007500011F460FF04C06F5F7F4F8F4F9F4F08956C
:1007600057FD9058440F551F59F05F3F71F0479562
:10077000880F97FB991F61F09F3F79F08795089547
:10078000121613061406551FF2CF4695F1DF08C066
:10079000161617061806991FF1CF86957105610583
:1007A00008940895E894BB2766277727CB0197F92B
:1007B00008951F920F920FB60F9211242F933F931B
:1007C0008F939F93AF93BF93809143019091440186
:1007D000A0914501B09146013091420123E0230FE1
:1007E0002D3758F50196A11DB11D2093420180932C
:1007F000430190934401A0934501B0934601809139
:10080000470190914801A0914901B0914A01019698
:10081000A11DB11D8093470190934801A093490108
:10082000B0934A01BF91AF919F918F913F912F91CA
:100830000F900FBE0F901F90189526E8230F029679
:10084000A11DB11DD2CF789484B5826084BD84B5DA
:10085000816084BD85B5826085BD85B5816085BDBB
:10086000EEE6F0E0808181608083E1E8F0E01082D4
:10087000808182608083808181608083E0E8F0E015
:10088000808181608083E1EBF0E0808184608083FF
:10089000E0EBF0E0808181608083EAE7F0E0808136
:1008A0008460808380818260808380818160808396
:1008B0008081806880831092C1000895833081F028
:1008C00028F4813099F08230A9F008958730A9F09A
:1008D0008830C9F08430B1F4809180008F7D03C0EE
:1008E000809180008F7780938000089584B58F7702
:1008F00084BD089584B58F7DFBCF8091B0008F7744
:100900008093B00008958091B0008F7DF9CFCF9390
:10091000DF9390E0FC01E458FF4F249180579F4FF4
:10092000FC0184918823C9F090E0880F991FFC0195
:10093000E854FF4FA591B491FC01E255FF4FC591DA
:10094000D49161110DC09FB7F8948C9120958223AA
:100950008C938881282328839FBFDF91CF910895AE
:10096000623051F49FB7F8943C91822F8095832395
:100970008C93E8812E2BEFCF8FB7F894EC912E2B30
:100980002C938FBFEACF1F93CF93DF93282F30E0B4
:10099000F901E859FF4F8491F901E458FF4FD491D0
:1009A000F901E057FF4FC491CC23A1F0162F81111C
:1009B00085DFEC2FF0E0EE0FFF1FE255FF4FA59112
:1009C000B4918FB7F894EC91111108C0D095DE2343
:1009D000DC938FBFDF91CF911F910895DE2BF8CF6D
:1009E000CF93DF93282F30E0F901E859FF4F84912E
:1009F000F901E458FF4FD491F901E057FF4FC4913A
:100A0000CC2399F081115ADFEC2FF0E0EE0FFF1F9D
:100A1000EC55FF4FA591B491EC91ED2381E090E06E
:100A200009F480E0DF91CF91089580E090E0FACF63
:100A3000FC01918D228D892F90E0805C9F4F821B5D
:100A400091098F7399270895FC01918D828D9817D4
:100A500031F0828DE80FF11D858D90E008958FEFC4
:100A60009FEF0895FC01918D828D981761F0A28D02
:100A7000AE0FBF2FB11D5D968C91928D9F5F9F73BE
:100A8000928F90E008958FEF9FEF0895FC01538DB2
:100A9000448D252F30E0842F90E0821B930B541758
:100AA00010F0CF96089501970895FC01A48DA80F2A
:100AB000B92FB11DA35ABF4F2C91848D90E00196A0
:100AC0008F739927848FA689B7892C93A089B189C0
:100AD0008C91837080648C93938D848D981306C061
:100AE0000288F389E02D80818F7D80830895CF93E4
:100AF000DF93EC01888D8823B1F0AA89BB89E8894E
:100B0000F9898C9185FD03C0808186FD0CC00FB6EC
:100B100007FCF7CF8C9185FFF2CF808185FFEDCF69
:100B2000CE01C3DFEACFDF91CF910895EF92FF921C
:100B30000F931F93CF93DF93EC0181E0888F9B8D00
:100B40008C8D98131AC0E889F989808185FF15C0BA
:100B50009FB7F894EE89FF896083E889F9898081DD
:100B60008370806480839FBF81E090E0DF91CF91AC
:100B70001F910F91FF90EF900895F62E0B8D10E0CE
:100B80000F5F1F4F0F731127E02E8C8D8E110BC03E
:100B90000FB607FCFACFE889F989808185FFF5CF88
:100BA000CE0183DFF2CFEB8DEC0FFD2FF11DE35A69
:100BB000FF4FF0829FB7F8940B8FEA89FB89808101
:100BC0008062D0CFCF92DF92EF92FF921F93CF93AC
:100BD000DF93EC016A017B01122FE889F98982E039
:100BE0008083C11481EED806E104F10499F060E03D
:100BF00079E08DE390E0A7019601F5D0215031090D
:100C0000410951095695479537952795211580E15A
:100C1000380790F0E889F989108260E874E88EE17D
:100C200090E0A7019601DFD0215031094109510917
:100C30005695479537952795EC85FD853083EE854C
:100C4000FF852083188EEC89FD891083EA89FB8952
:100C5000808180618083EA89FB89808188608083CC
:100C6000EA89FB89808180688083EA89FB898081A9
:100C70008F7D8083DF91CF911F91FF90EF90DF9068
:100C8000CF9008951F920F920FB60F9211242F93B9
:100C90008F939F93EF93FF93E0915B01F0915C0141
:100CA0008081E0916101F091620182FD1BC0908121
:100CB000809164018F5F8F7320916501821741F0ED
:100CC000E0916401F0E0E55BFE4F958F8093640155
:100CD000FF91EF919F918F912F910F900FBE0F90E9
:100CE0001F9018958081F4CF1F920F920FB60F922C
:100CF00011242F933F934F935F936F937F938F9321
:100D00009F93AF93BF93EF93FF938BE491E0CDDE7E
:100D1000FF91EF91BF91AF919F918F917F916F91D3
:100D20005F914F913F912F910F900FBE0F901F90A9
:100D30001895EBE4F1E01382128288EE93E0A0E0D4
:100D4000B0E084839583A683B7838AE291E09183A0
:100D5000808385EC90E09587848784EC90E097878A
:100D6000868780EC90E0918B808B81EC90E0938B78
:100D7000828B82EC90E0958B848B86EC90E0978B55
:100D8000868B118E128E138E148E0895AF92BF92A1
:100D9000CF92DF92EF92FF920F931F93CF93DF9347
:100DA0006C017B018B01040F151FEB015E01AE1876
:100DB000BF08C017D10759F06991D601ED91FC9198
:100DC0000190F081E02DC6010995892B79F7C501C5
:100DD000DF91CF911F910F91FF90EF90DF90CF9017
:100DE000BF90AF900895A1E21A2EAA1BBB1BFD0174
:100DF0000DC0AA1FBB1FEE1FFF1FA217B307E407FA
:100E0000F50720F0A21BB30BE40BF50B661F771F51
:100E1000881F991F1A9469F7609570958095909531
:100E20009B01AC01BD01CF010895EE0FFF1F05909E
:0A0E3000F491E02D0994F894FFCF2F
:100E3A00CDCCCC3DCDCCCC3D000000000000000064
:100E4A000000803F00000000000000000000803F1A
:100E5A00000000003801000000009605C60646059D
:080E6A00770518053205240587
:00000001FF
